{"contracts/VehicleRegistration.sol":{"VehicleRegistration":{"abi":[{"inputs":[{"internalType":"address","name":"_adminAddress","type":"address"}],"stateMutability":"nonpayable","type":"constructor"},{"anonymous":false,"inputs":[{"indexed":true,"internalType":"uint256","name":"vehicleId","type":"uint256"},{"indexed":false,"internalType":"enum VehicleRegistration.VehicleStatus","name":"newStatus","type":"uint8"},{"indexed":true,"internalType":"address","name":"reviewer","type":"address"}],"name":"VehicleReviewed","type":"event"},{"anonymous":false,"inputs":[{"indexed":true,"internalType":"uint256","name":"vehicleId","type":"uint256"},{"indexed":true,"internalType":"address","name":"owner","type":"address"},{"indexed":false,"internalType":"uint256","name":"fee","type":"uint256"}],"name":"VehicleSubmitted","type":"event"},{"inputs":[],"name":"MIN_REGISTRATION_FEE","outputs":[{"internalType":"uint256","name":"","type":"uint256"}],"stateMutability":"view","type":"function"},{"inputs":[],"name":"adminAddress","outputs":[{"internalType":"address","name":"","type":"address"}],"stateMutability":"view","type":"function"},{"inputs":[],"name":"getAllVehicleIds","outputs":[{"internalType":"uint256[]","name":"","type":"uint256[]"}],"stateMutability":"view","type":"function"},{"inputs":[{"internalType":"string","name":"_plate","type":"string"}],"name":"isLicensePlateUsed","outputs":[{"internalType":"bool","name":"","type":"bool"}],"stateMutability":"view","type":"function"},{"inputs":[],"name":"nextVehicleId","outputs":[{"internalType":"uint256","name":"","type":"uint256"}],"stateMutability":"view","type":"function"},{"inputs":[{"components":[{"internalType":"string","name":"fullName","type":"string"},{"internalType":"string","name":"cccd","type":"string"},{"internalType":"string","name":"addressInfo","type":"string"},{"internalType":"string","name":"phone","type":"string"}],"internalType":"struct VehicleRegistration.OwnerInfo","name":"_ownerInfo","type":"tuple"},{"internalType":"string","name":"_brand","type":"string"},{"internalType":"string","name":"_model","type":"string"},{"internalType":"string","name":"_color","type":"string"},{"internalType":"string","name":"_licensePlate","type":"string"},{"internalType":"uint16","name":"_manufactureYear","type":"uint16"},{"internalType":"string","name":"_documentIpfsHash","type":"string"},{"internalType":"string","name":"_vehicleImageIpfsHash","type":"string"}],"name":"registerVehicle","outputs":[],"stateMutability":"payable","type":"function"},{"inputs":[{"internalType":"uint256","name":"_vehicleId","type":"uint256"},{"internalType":"enum VehicleRegistration.VehicleStatus","name":"_newStatus","type":"uint8"}],"name":"reviewVehicle","outputs":[],"stateMutability":"nonpayable","type":"function"},{"inputs":[{"internalType":"uint256","name":"","type":"uint256"}],"name":"vehicles","outputs":[{"internalType":"uint256","name":"vehicleId","type":"uint256"},{"internalType":"string","name":"brand","type":"string"},{"internalType":"string","name":"model","type":"string"},{"internalType":"string","name":"color","type":"string"},{"internalType":"string","name":"licensePlate","type":"string"},{"internalType":"uint16","name":"manufactureYear","type":"uint16"},{"internalType":"string","name":"documentIpfsHash","type":"string"},{"internalType":"string","name":"vehicleImageIpfsHash","type":"string"},{"internalType":"enum VehicleRegistration.VehicleStatus","name":"status","type":"uint8"},{"internalType":"address payable","name":"walletAddress","type":"address"},{"components":[{"internalType":"string","name":"fullName","type":"string"},{"internalType":"string","name":"cccd","type":"string"},{"internalType":"string","name":"addressInfo","type":"string"},{"internalType":"string","name":"phone","type":"string"}],"internalType":"struct VehicleRegistration.OwnerInfo","name":"ownerInfo","type":"tuple"},{"internalType":"address","name":"reviewer","type":"address"},{"internalType":"uint256","name":"fee","type":"uint256"},{"internalType":"uint256","name":"createdAt","type":"uint256"}],"stateMutability":"view","type":"function"}],"evm":{"bytecode":{"linkReferences":{},"object":"608034607557601f611be438819003918201601f19168301916001600160401b03831184841017607a57808492602094604052833981010312607557516001600160a01b038116908190036075576001600255600380546001600160a01b031916919091179055604051611b5390816100918239f35b600080fd5b634e487b7160e01b600052604160045260246000fdfe6080604052600436101561001257600080fd5b60003560e01c80631f4995421461184b5780632aa660b91461154f578063390044341461034757806340feca1c146102e6578063418cc2ae146102c45780634acdca9f146102a6578063b8ba95fa146100a25763fc6f94681461007457600080fd5b3461009d57600036600319011261009d576003546040516001600160a01b039091168152602090f35b600080fd5b3461009d57602036600319011261009d5760043560005260006020526040600020805490600181016100d3906119f5565b906100e0600282016119f5565b6100ec600383016119f5565b916100f9600482016119f5565b600582015461ffff169061010f600684016119f5565b9061011c600785016119f5565b926008850154936040519361013085611929565b61013c600988016119f5565b855261014a600a88016119f5565b602086019081529261015e600b89016119f5565b6040870190815294610172600c8a016119f5565b6060880152600160a01b60019003600d8a0154169a600e8a015499600f01549a6040519e8f9e8f918252602082016101c090526101c082016101b391611abc565b9080820390604001526101c591611abc565b8d810360608f01526101d691611abc565b8c810360808e01526101e791611abc565b9060a08c01528a810360c08c01526101fe91611abc565b89810360e08b015261020f91611abc565b936102216101008a0160ff8316611ae1565b60081c6001600160a01b0316610120890152878403610140890152825160808086526102509190860190611abc565b905190848103602086015261026491611abc565b905190838103604085015261027891611abc565b906060015191808203906060015261028f91611abc565b926101608501526101808401526101a08301520390f35b3461009d57600036600319011261009d576020600254604051908152f35b3461009d57600036600319011261009d576020604051662386f26fc100008152f35b3461009d57602036600319011261009d576004356001600160401b03811161009d5760ff610331602061031e81943690600401611965565b8160405193828580945193849201611a99565b8101600181520301902054166040519015158152f35b61010036600319011261009d576004356001600160401b03811161009d576080600319823603011261009d5760405161037f81611929565b81600401356001600160401b03811161009d576103a29060043691850101611965565b815260248201356001600160401b03811161009d576103c79060043691850101611965565b906020810191825260448301356001600160401b03811161009d576103f29060043691860101611965565b92604082019384526064810135906001600160401b03821161009d57600461041d9236920101611965565b91606082019283526024356001600160401b03811161009d57610444903690600401611965565b926044356001600160401b03811161009d57610464903690600401611965565b946064356001600160401b03811161009d57610484903690600401611965565b946084356001600160401b03811161009d576104a4903690600401611965565b9460a4359361ffff851680950361009d5760c4356001600160401b03811161009d576104d4903690600401611965565b9360e4356001600160401b03811161009d576104f4903690600401611965565b9683515115611515575151156114e0575151156114a85760099051511061146c5781511561143657875115611400578651156113ca5785511561138c576107bc84101580611380575b1561133b578251156112fd576040519660ff88602081816105658c8051928391019e8f611a99565b8101600181520301902054166112b857662386f26fc10000341061127357600254986000198a1461125d5760018a01600255604051966101c08801958887106001600160401b03881117610b56578b978997604052888852602088019687526040880193845260608801948552608088018b815260a0890191825260c0890192835260e08901938452610100890195600087526101208a01953387526101408b019889526101608b019960008b526101a06101808d019c8d349052019c8d4290526000526000602052600160406000209e8f905181550190518051906001600160401b038211610b5657819061065b84546119bb565b601f811161120a575b50602090601f83116001146111a55760009261119a575b50508160011b916000199060031b1c19161790555b51805160028e01916001600160401b038211610b565781906106b284546119bb565b601f8111611147575b50602090601f83116001146110e2576000926110d7575b50508160011b916000199060031b1c19161790555b51805160038d01916001600160401b038211610b5657819061070984546119bb565b601f8111611084575b50602090601f831160011461101f57600092611014575b50508160011b916000199060031b1c19161790555b51805160048c01916001600160401b038211610b5657819061076084546119bb565b601f8111610fc1575b50602090601f8311600114610f5c57600092610f51575b50508160011b916000199060031b1c19161790555b61ffff60058b0191511661ffff198254161790556006890190518051906001600160401b038211610b565781906107cc84546119bb565b601f8111610efe575b50602090601f8311600114610e9957600092610e8e575b50508160011b916000199060031b1c19161790555b51805160078901916001600160401b038211610b5657819061082384546119bb565b601f8111610e3b575b50602090601f8311600114610dd657600092610dcb575b50508160011b916000199060031b1c19161790555b6008870191516003811015610db5576108719083611b05565b518154610100600160a81b03191660089190911b610100600160a81b0316179055518051805160098701916001600160401b038211610b565781906108b684546119bb565b601f8111610d62575b50602090601f8311600114610cfd57600092610cf2575b50508160011b916000199060031b1c19161790555b600a850160208201518051906001600160401b038211610b5657819061091184546119bb565b601f8111610c9f575b50602090601f8311600114610c3a57600092610c2f575b50508160011b916000199060031b1c19161790555b600b850160408201518051906001600160401b038211610b5657819061096c84546119bb565b601f8111610bdc575b50602090601f8311600114610b7757600092610b6c575b50508160011b916000199060031b1c19161790555b606001518051600c8601916001600160401b038211610b56576109c483546119bb565b601f8111610b0e575b50602090601f8311600114610a99579282610a4a9a989693600f969360209b9996600092610a8e575b50508160011b916000199060031b1c19161790555b51600d850180546001600160a01b0319166001600160a01b039290921691909117905551600e8401555191015560405190519093849282908490611a99565b81016001815203019020600160ff19825416179055604051903482527fab87f20b706cc7fddedbd4b46f46c9033f880359fcee906bfbe7a2dff48d2b6060203393a3005b015190508d806109f6565b90601f1983169184600052816000209260005b818110610af6575093600f969360209b99969360019383610a4a9f9d9b9810610add575b505050811b019055610a0b565b015160001960f88460031b161c191690558d8080610ad0565b92936020600181928786015181550195019301610aac565b836000526020600020601f840160051c81019160208510610b4c575b601f0160051c01905b818110610b4057506109cd565b60008155600101610b33565b9091508190610b2a565b634e487b7160e01b600052604160045260246000fd5b015190508b8061098c565b60008581528281209350601f198516905b818110610bc45750908460019594939210610bab575b505050811b0190556109a1565b015160001960f88460031b161c191690558b8080610b9e565b92936020600181928786015181550195019301610b88565b909150836000526020600020601f840160051c81019160208510610c25575b90601f859493920160051c01905b818110610c165750610975565b60008155849350600101610c09565b9091508190610bfb565b015190508b80610931565b60008581528281209350601f198516905b818110610c875750908460019594939210610c6e575b505050811b019055610946565b015160001960f88460031b161c191690558b8080610c61565b92936020600181928786015181550195019301610c4b565b909150836000526020600020601f840160051c81019160208510610ce8575b90601f859493920160051c01905b818110610cd9575061091a565b60008155849350600101610ccc565b9091508190610cbe565b015190508b806108d6565b60008581528281209350601f198516905b818110610d4a5750908460019594939210610d31575b505050811b0190556108eb565b015160001960f88460031b161c191690558b8080610d24565b92936020600181928786015181550195019301610d0e565b909150836000526020600020601f840160051c81019160208510610dab575b90601f859493920160051c01905b818110610d9c57506108bf565b60008155849350600101610d8f565b9091508190610d81565b634e487b7160e01b600052602160045260246000fd5b015190508d80610843565b60008581528281209350601f198516905b818110610e235750908460019594939210610e0a575b505050811b019055610858565b015160001960f88460031b161c191690558d8080610dfd565b92936020600181928786015181550195019301610de7565b909150836000526020600020601f840160051c81019160208510610e84575b90601f859493920160051c01905b818110610e75575061082c565b60008155849350600101610e68565b9091508190610e5a565b015190508e806107ec565b60008581528281209350601f198516905b818110610ee65750908460019594939210610ecd575b505050811b019055610801565b015160001960f88460031b161c191690558e8080610ec0565b92936020600181928786015181550195019301610eaa565b909150836000526020600020601f840160051c81019160208510610f47575b90601f859493920160051c01905b818110610f3857506107d5565b60008155849350600101610f2b565b9091508190610f1d565b015190503880610780565b60008581528281209350601f198516905b818110610fa95750908460019594939210610f90575b505050811b019055610795565b015160001960f88460031b161c19169055388080610f83565b92936020600181928786015181550195019301610f6d565b909150836000526020600020601f840160051c8101916020851061100a575b90601f859493920160051c01905b818110610ffb5750610769565b60008155849350600101610fee565b9091508190610fe0565b015190503880610729565b60008581528281209350601f198516905b81811061106c5750908460019594939210611053575b505050811b01905561073e565b015160001960f88460031b161c19169055388080611046565b92936020600181928786015181550195019301611030565b909150836000526020600020601f840160051c810191602085106110cd575b90601f859493920160051c01905b8181106110be5750610712565b600081558493506001016110b1565b90915081906110a3565b0151905038806106d2565b60008581528281209350601f198516905b81811061112f5750908460019594939210611116575b505050811b0190556106e7565b015160001960f88460031b161c19169055388080611109565b929360206001819287860151815501950193016110f3565b909150836000526020600020601f840160051c81019160208510611190575b90601f859493920160051c01905b81811061118157506106bb565b60008155849350600101611174565b9091508190611166565b01519050388061067b565b60008581528281209350601f198516905b8181106111f257509084600195949392106111d9575b505050811b019055610690565b015160001960f88460031b161c191690553880806111cc565b929360206001819287860151815501950193016111b6565b909150836000526020600020601f840160051c81019160208510611253575b90601f859493920160051c01905b8181106112445750610664565b60008155849350600101611237565b9091508190611229565b634e487b7160e01b600052601160045260246000fd5b60405162461bcd60e51b815260206004820152601960248201527f46656520746f6f206c6f7720283e3d20302e30312045544829000000000000006044820152606490fd5b60405162461bcd60e51b815260206004820152601a60248201527f4c6963656e736520706c61746520616c726561647920757365640000000000006044820152606490fd5b60405162461bcd60e51b8152602060048201526016602482015275111bd8dd5b595b9d0812541194c81c995c5d5a5c995960521b6044820152606490fd5b60405162461bcd60e51b815260206004820152601860248201527f496e76616c6964206d616e7566616374757265207965617200000000000000006044820152606490fd5b506107e984111561053d565b60405162461bcd60e51b8152602060048201526016602482015275131a58d95b9cd9481c1b185d19481c995c5d5a5c995960521b6044820152606490fd5b60405162461bcd60e51b815260206004820152600e60248201526d10dbdb1bdc881c995c5d5a5c995960921b6044820152606490fd5b60405162461bcd60e51b815260206004820152600e60248201526d135bd9195b081c995c5d5a5c995960921b6044820152606490fd5b60405162461bcd60e51b815260206004820152600e60248201526d109c985b99081c995c5d5a5c995960921b6044820152606490fd5b60405162461bcd60e51b815260206004820152601460248201527324b73b30b634b210383437b73290373ab6b132b960611b6044820152606490fd5b60405162461bcd60e51b815260206004820152601060248201526f1059191c995cdcc81c995c5d5a5c995960821b6044820152606490fd5b60405162461bcd60e51b815260206004820152600d60248201526c10d0d0d1081c995c5d5a5c9959609a1b6044820152606490fd5b60405162461bcd60e51b8152602060048201526012602482015271119d5b1b081b985b59481c995c5d5a5c995960721b6044820152606490fd5b3461009d57604036600319011261009d57602435600435600382101561009d576003546001600160a01b031633036117fb57801515806117f0575b156117b6576001821460008180156117a9575b1561177357826000526000602052604060002091600883019160ff8354166003811015610db55761172e576115d28684611b05565b600d840180546001600160a01b03191633179055610db557156116605750600080808093600e60018060a01b036003541691015490828215611657575bf11561164b575b6116236040518093611ae1565b7ff293bd2612d4b17249812ec1b22c737269c823c19abab1d9d9ddb37d7d754fcd60203393a3005b6040513d6000823e3d90fd5b506108fc61160f565b54600e8201546000918291829182919060081c6001600160a01b0316828215611725575bf11561164b57600401604051908160008254926116a0846119bb565b936001811690811561170b57506001146116cf575b506001815203602001909120805460ff1916905550611616565b9150506000528160206000206000905b8382106116f35750506020918101866116b5565b602091925080600191548487015201910183916116df565b60ff191684525060209380151502830191508790506116b5565b506108fc611684565b60405162461bcd60e51b815260206004820152601860248201527f56656869636c6520616c726561647920726576696577656400000000000000006044820152606490fd5b60405162461bcd60e51b815260206004820152600e60248201526d496e76616c69642073746174757360901b6044820152606490fd5b505060006002841461159d565b60405162461bcd60e51b8152602060048201526012602482015271125b9d985b1a590815995a1a58db1948125160721b6044820152606490fd5b50600254811061158a565b60405162461bcd60e51b815260206004820152602260248201527f4f6e6c792061646d696e2063616e20706572666f726d2074686973206163746960448201526137b760f11b6064820152608490fd5b3461009d57600036600319011261009d5760025460001981019080821161125d5761188e61187883611aee565b926118866040519485611944565b808452611aee565b602083019190601f190136833760015b8181106118ea5782846040519182916020830190602084525180915260408301919060005b8181106118d1575050500390f35b82518452859450602093840193909201916001016118c3565b60001981019080821161125d5784518210156119135780602060019360051b870101520161189e565b634e487b7160e01b600052603260045260246000fd5b608081019081106001600160401b03821117610b5657604052565b90601f801991011681019081106001600160401b03821117610b5657604052565b81601f8201121561009d578035906001600160401b038211610b565760405192611999601f8401601f191660200185611944565b8284526020838301011161009d57816000926020809301838601378301015290565b90600182811c921680156119eb575b60208310146119d557565b634e487b7160e01b600052602260045260246000fd5b91607f16916119ca565b9060405191826000825492611a09846119bb565b8084529360018116908115611a775750600114611a30575b50611a2e92500383611944565b565b90506000929192526020600020906000915b818310611a5b575050906020611a2e9282010138611a21565b6020919350806001915483858901015201910190918492611a42565b905060209250611a2e94915060ff191682840152151560051b82010138611a21565b60005b838110611aac5750506000910152565b8181015183820152602001611a9c565b90602091611ad581518092818552858086019101611a99565b601f01601f1916010190565b906003821015610db55752565b6001600160401b038111610b565760051b60200190565b906003811015610db55760ff8019835416911617905556fea2646970667358221220b154618f409e70c5906bce35c6e73bf1fc344efb82e6c9c95bab404474857c4f64736f6c634300081c0033","opcodes":"PUSH1 0x80 CALLVALUE PUSH1 0x75 JUMPI PUSH1 0x1F PUSH2 0x1BE4 CODESIZE DUP2 SWAP1 SUB SWAP2 DUP3 ADD PUSH1 0x1F NOT AND DUP4 ADD SWAP2 PUSH1 0x1 PUSH1 0x1 PUSH1 0x40 SHL SUB DUP4 GT DUP5 DUP5 LT OR PUSH1 0x7A JUMPI DUP1 DUP5 SWAP3 PUSH1 0x20 SWAP5 PUSH1 0x40 MSTORE DUP4 CODECOPY DUP2 ADD SUB SLT PUSH1 0x75 JUMPI MLOAD PUSH1 0x1 PUSH1 0x1 PUSH1 0xA0 SHL SUB DUP2 AND SWAP1 DUP2 SWAP1 SUB PUSH1 0x75 JUMPI PUSH1 0x1 PUSH1 0x2 SSTORE PUSH1 0x3 DUP1 SLOAD PUSH1 0x1 PUSH1 0x1 PUSH1 0xA0 SHL SUB NOT AND SWAP2 SWAP1 SWAP2 OR SWAP1 SSTORE PUSH1 0x40 MLOAD PUSH2 0x1B53 SWAP1 DUP2 PUSH2 0x91 DUP3 CODECOPY RETURN JUMPDEST PUSH1 0x0 DUP1 REVERT JUMPDEST PUSH4 0x4E487B71 PUSH1 0xE0 SHL PUSH1 0x0 MSTORE PUSH1 0x41 PUSH1 0x4 MSTORE PUSH1 0x24 PUSH1 0x0 REVERT INVALID PUSH1 0x80 PUSH1 0x40 MSTORE PUSH1 0x4 CALLDATASIZE LT ISZERO PUSH2 0x12 JUMPI PUSH1 0x0 DUP1 REVERT JUMPDEST PUSH1 0x0 CALLDATALOAD PUSH1 0xE0 SHR DUP1 PUSH4 0x1F499542 EQ PUSH2 0x184B JUMPI DUP1 PUSH4 0x2AA660B9 EQ PUSH2 0x154F JUMPI DUP1 PUSH4 0x39004434 EQ PUSH2 0x347 JUMPI DUP1 PUSH4 0x40FECA1C EQ PUSH2 0x2E6 JUMPI DUP1 PUSH4 0x418CC2AE EQ PUSH2 0x2C4 JUMPI DUP1 PUSH4 0x4ACDCA9F EQ PUSH2 0x2A6 JUMPI DUP1 PUSH4 0xB8BA95FA EQ PUSH2 0xA2 JUMPI PUSH4 0xFC6F9468 EQ PUSH2 0x74 JUMPI PUSH1 0x0 DUP1 REVERT JUMPDEST CALLVALUE PUSH2 0x9D JUMPI PUSH1 0x0 CALLDATASIZE PUSH1 0x3 NOT ADD SLT PUSH2 0x9D JUMPI PUSH1 0x3 SLOAD PUSH1 0x40 MLOAD PUSH1 0x1 PUSH1 0x1 PUSH1 0xA0 SHL SUB SWAP1 SWAP2 AND DUP2 MSTORE PUSH1 0x20 SWAP1 RETURN JUMPDEST PUSH1 0x0 DUP1 REVERT JUMPDEST CALLVALUE PUSH2 0x9D JUMPI PUSH1 0x20 CALLDATASIZE PUSH1 0x3 NOT ADD SLT PUSH2 0x9D JUMPI PUSH1 0x4 CALLDATALOAD PUSH1 0x0 MSTORE PUSH1 0x0 PUSH1 0x20 MSTORE PUSH1 0x40 PUSH1 0x0 KECCAK256 DUP1 SLOAD SWAP1 PUSH1 0x1 DUP2 ADD PUSH2 0xD3 SWAP1 PUSH2 0x19F5 JUMP JUMPDEST SWAP1 PUSH2 0xE0 PUSH1 0x2 DUP3 ADD PUSH2 0x19F5 JUMP JUMPDEST PUSH2 0xEC PUSH1 0x3 DUP4 ADD PUSH2 0x19F5 JUMP JUMPDEST SWAP2 PUSH2 0xF9 PUSH1 0x4 DUP3 ADD PUSH2 0x19F5 JUMP JUMPDEST PUSH1 0x5 DUP3 ADD SLOAD PUSH2 0xFFFF AND SWAP1 PUSH2 0x10F PUSH1 0x6 DUP5 ADD PUSH2 0x19F5 JUMP JUMPDEST SWAP1 PUSH2 0x11C PUSH1 0x7 DUP6 ADD PUSH2 0x19F5 JUMP JUMPDEST SWAP3 PUSH1 0x8 DUP6 ADD SLOAD SWAP4 PUSH1 0x40 MLOAD SWAP4 PUSH2 0x130 DUP6 PUSH2 0x1929 JUMP JUMPDEST PUSH2 0x13C PUSH1 0x9 DUP9 ADD PUSH2 0x19F5 JUMP JUMPDEST DUP6 MSTORE PUSH2 0x14A PUSH1 0xA DUP9 ADD PUSH2 0x19F5 JUMP JUMPDEST PUSH1 0x20 DUP7 ADD SWAP1 DUP2 MSTORE SWAP3 PUSH2 0x15E PUSH1 0xB DUP10 ADD PUSH2 0x19F5 JUMP JUMPDEST PUSH1 0x40 DUP8 ADD SWAP1 DUP2 MSTORE SWAP5 PUSH2 0x172 PUSH1 0xC DUP11 ADD PUSH2 0x19F5 JUMP JUMPDEST PUSH1 0x60 DUP9 ADD MSTORE PUSH1 0x1 PUSH1 0xA0 SHL PUSH1 0x1 SWAP1 SUB PUSH1 0xD DUP11 ADD SLOAD AND SWAP11 PUSH1 0xE DUP11 ADD SLOAD SWAP10 PUSH1 0xF ADD SLOAD SWAP11 PUSH1 0x40 MLOAD SWAP15 DUP16 SWAP15 DUP16 SWAP2 DUP3 MSTORE PUSH1 0x20 DUP3 ADD PUSH2 0x1C0 SWAP1 MSTORE PUSH2 0x1C0 DUP3 ADD PUSH2 0x1B3 SWAP2 PUSH2 0x1ABC JUMP JUMPDEST SWAP1 DUP1 DUP3 SUB SWAP1 PUSH1 0x40 ADD MSTORE PUSH2 0x1C5 SWAP2 PUSH2 0x1ABC JUMP JUMPDEST DUP14 DUP2 SUB PUSH1 0x60 DUP16 ADD MSTORE PUSH2 0x1D6 SWAP2 PUSH2 0x1ABC JUMP JUMPDEST DUP13 DUP2 SUB PUSH1 0x80 DUP15 ADD MSTORE PUSH2 0x1E7 SWAP2 PUSH2 0x1ABC JUMP JUMPDEST SWAP1 PUSH1 0xA0 DUP13 ADD MSTORE DUP11 DUP2 SUB PUSH1 0xC0 DUP13 ADD MSTORE PUSH2 0x1FE SWAP2 PUSH2 0x1ABC JUMP JUMPDEST DUP10 DUP2 SUB PUSH1 0xE0 DUP12 ADD MSTORE PUSH2 0x20F SWAP2 PUSH2 0x1ABC JUMP JUMPDEST SWAP4 PUSH2 0x221 PUSH2 0x100 DUP11 ADD PUSH1 0xFF DUP4 AND PUSH2 0x1AE1 JUMP JUMPDEST PUSH1 0x8 SHR PUSH1 0x1 PUSH1 0x1 PUSH1 0xA0 SHL SUB AND PUSH2 0x120 DUP10 ADD MSTORE DUP8 DUP5 SUB PUSH2 0x140 DUP10 ADD MSTORE DUP3 MLOAD PUSH1 0x80 DUP1 DUP7 MSTORE PUSH2 0x250 SWAP2 SWAP1 DUP7 ADD SWAP1 PUSH2 0x1ABC JUMP JUMPDEST SWAP1 MLOAD SWAP1 DUP5 DUP2 SUB PUSH1 0x20 DUP7 ADD MSTORE PUSH2 0x264 SWAP2 PUSH2 0x1ABC JUMP JUMPDEST SWAP1 MLOAD SWAP1 DUP4 DUP2 SUB PUSH1 0x40 DUP6 ADD MSTORE PUSH2 0x278 SWAP2 PUSH2 0x1ABC JUMP JUMPDEST SWAP1 PUSH1 0x60 ADD MLOAD SWAP2 DUP1 DUP3 SUB SWAP1 PUSH1 0x60 ADD MSTORE PUSH2 0x28F SWAP2 PUSH2 0x1ABC JUMP JUMPDEST SWAP3 PUSH2 0x160 DUP6 ADD MSTORE PUSH2 0x180 DUP5 ADD MSTORE PUSH2 0x1A0 DUP4 ADD MSTORE SUB SWAP1 RETURN JUMPDEST CALLVALUE PUSH2 0x9D JUMPI PUSH1 0x0 CALLDATASIZE PUSH1 0x3 NOT ADD SLT PUSH2 0x9D JUMPI PUSH1 0x20 PUSH1 0x2 SLOAD PUSH1 0x40 MLOAD SWAP1 DUP2 MSTORE RETURN JUMPDEST CALLVALUE PUSH2 0x9D JUMPI PUSH1 0x0 CALLDATASIZE PUSH1 0x3 NOT ADD SLT PUSH2 0x9D JUMPI PUSH1 0x20 PUSH1 0x40 MLOAD PUSH7 0x2386F26FC10000 DUP2 MSTORE RETURN JUMPDEST CALLVALUE PUSH2 0x9D JUMPI PUSH1 0x20 CALLDATASIZE PUSH1 0x3 NOT ADD SLT PUSH2 0x9D JUMPI PUSH1 0x4 CALLDATALOAD PUSH1 0x1 PUSH1 0x1 PUSH1 0x40 SHL SUB DUP2 GT PUSH2 0x9D JUMPI PUSH1 0xFF PUSH2 0x331 PUSH1 0x20 PUSH2 0x31E DUP2 SWAP5 CALLDATASIZE SWAP1 PUSH1 0x4 ADD PUSH2 0x1965 JUMP JUMPDEST DUP2 PUSH1 0x40 MLOAD SWAP4 DUP3 DUP6 DUP1 SWAP5 MLOAD SWAP4 DUP5 SWAP3 ADD PUSH2 0x1A99 JUMP JUMPDEST DUP2 ADD PUSH1 0x1 DUP2 MSTORE SUB ADD SWAP1 KECCAK256 SLOAD AND PUSH1 0x40 MLOAD SWAP1 ISZERO ISZERO DUP2 MSTORE RETURN JUMPDEST PUSH2 0x100 CALLDATASIZE PUSH1 0x3 NOT ADD SLT PUSH2 0x9D JUMPI PUSH1 0x4 CALLDATALOAD PUSH1 0x1 PUSH1 0x1 PUSH1 0x40 SHL SUB DUP2 GT PUSH2 0x9D JUMPI PUSH1 0x80 PUSH1 0x3 NOT DUP3 CALLDATASIZE SUB ADD SLT PUSH2 0x9D JUMPI PUSH1 0x40 MLOAD PUSH2 0x37F DUP2 PUSH2 0x1929 JUMP JUMPDEST DUP2 PUSH1 0x4 ADD CALLDATALOAD PUSH1 0x1 PUSH1 0x1 PUSH1 0x40 SHL SUB DUP2 GT PUSH2 0x9D JUMPI PUSH2 0x3A2 SWAP1 PUSH1 0x4 CALLDATASIZE SWAP2 DUP6 ADD ADD PUSH2 0x1965 JUMP JUMPDEST DUP2 MSTORE PUSH1 0x24 DUP3 ADD CALLDATALOAD PUSH1 0x1 PUSH1 0x1 PUSH1 0x40 SHL SUB DUP2 GT PUSH2 0x9D JUMPI PUSH2 0x3C7 SWAP1 PUSH1 0x4 CALLDATASIZE SWAP2 DUP6 ADD ADD PUSH2 0x1965 JUMP JUMPDEST SWAP1 PUSH1 0x20 DUP2 ADD SWAP2 DUP3 MSTORE PUSH1 0x44 DUP4 ADD CALLDATALOAD PUSH1 0x1 PUSH1 0x1 PUSH1 0x40 SHL SUB DUP2 GT PUSH2 0x9D JUMPI PUSH2 0x3F2 SWAP1 PUSH1 0x4 CALLDATASIZE SWAP2 DUP7 ADD ADD PUSH2 0x1965 JUMP JUMPDEST SWAP3 PUSH1 0x40 DUP3 ADD SWAP4 DUP5 MSTORE PUSH1 0x64 DUP2 ADD CALLDATALOAD SWAP1 PUSH1 0x1 PUSH1 0x1 PUSH1 0x40 SHL SUB DUP3 GT PUSH2 0x9D JUMPI PUSH1 0x4 PUSH2 0x41D SWAP3 CALLDATASIZE SWAP3 ADD ADD PUSH2 0x1965 JUMP JUMPDEST SWAP2 PUSH1 0x60 DUP3 ADD SWAP3 DUP4 MSTORE PUSH1 0x24 CALLDATALOAD PUSH1 0x1 PUSH1 0x1 PUSH1 0x40 SHL SUB DUP2 GT PUSH2 0x9D JUMPI PUSH2 0x444 SWAP1 CALLDATASIZE SWAP1 PUSH1 0x4 ADD PUSH2 0x1965 JUMP JUMPDEST SWAP3 PUSH1 0x44 CALLDATALOAD PUSH1 0x1 PUSH1 0x1 PUSH1 0x40 SHL SUB DUP2 GT PUSH2 0x9D JUMPI PUSH2 0x464 SWAP1 CALLDATASIZE SWAP1 PUSH1 0x4 ADD PUSH2 0x1965 JUMP JUMPDEST SWAP5 PUSH1 0x64 CALLDATALOAD PUSH1 0x1 PUSH1 0x1 PUSH1 0x40 SHL SUB DUP2 GT PUSH2 0x9D JUMPI PUSH2 0x484 SWAP1 CALLDATASIZE SWAP1 PUSH1 0x4 ADD PUSH2 0x1965 JUMP JUMPDEST SWAP5 PUSH1 0x84 CALLDATALOAD PUSH1 0x1 PUSH1 0x1 PUSH1 0x40 SHL SUB DUP2 GT PUSH2 0x9D JUMPI PUSH2 0x4A4 SWAP1 CALLDATASIZE SWAP1 PUSH1 0x4 ADD PUSH2 0x1965 JUMP JUMPDEST SWAP5 PUSH1 0xA4 CALLDATALOAD SWAP4 PUSH2 0xFFFF DUP6 AND DUP1 SWAP6 SUB PUSH2 0x9D JUMPI PUSH1 0xC4 CALLDATALOAD PUSH1 0x1 PUSH1 0x1 PUSH1 0x40 SHL SUB DUP2 GT PUSH2 0x9D JUMPI PUSH2 0x4D4 SWAP1 CALLDATASIZE SWAP1 PUSH1 0x4 ADD PUSH2 0x1965 JUMP JUMPDEST SWAP4 PUSH1 0xE4 CALLDATALOAD PUSH1 0x1 PUSH1 0x1 PUSH1 0x40 SHL SUB DUP2 GT PUSH2 0x9D JUMPI PUSH2 0x4F4 SWAP1 CALLDATASIZE SWAP1 PUSH1 0x4 ADD PUSH2 0x1965 JUMP JUMPDEST SWAP7 DUP4 MLOAD MLOAD ISZERO PUSH2 0x1515 JUMPI MLOAD MLOAD ISZERO PUSH2 0x14E0 JUMPI MLOAD MLOAD ISZERO PUSH2 0x14A8 JUMPI PUSH1 0x9 SWAP1 MLOAD MLOAD LT PUSH2 0x146C JUMPI DUP2 MLOAD ISZERO PUSH2 0x1436 JUMPI DUP8 MLOAD ISZERO PUSH2 0x1400 JUMPI DUP7 MLOAD ISZERO PUSH2 0x13CA JUMPI DUP6 MLOAD ISZERO PUSH2 0x138C JUMPI PUSH2 0x7BC DUP5 LT ISZERO DUP1 PUSH2 0x1380 JUMPI JUMPDEST ISZERO PUSH2 0x133B JUMPI DUP3 MLOAD ISZERO PUSH2 0x12FD JUMPI PUSH1 0x40 MLOAD SWAP7 PUSH1 0xFF DUP9 PUSH1 0x20 DUP2 DUP2 PUSH2 0x565 DUP13 DUP1 MLOAD SWAP3 DUP4 SWAP2 ADD SWAP15 DUP16 PUSH2 0x1A99 JUMP JUMPDEST DUP2 ADD PUSH1 0x1 DUP2 MSTORE SUB ADD SWAP1 KECCAK256 SLOAD AND PUSH2 0x12B8 JUMPI PUSH7 0x2386F26FC10000 CALLVALUE LT PUSH2 0x1273 JUMPI PUSH1 0x2 SLOAD SWAP9 PUSH1 0x0 NOT DUP11 EQ PUSH2 0x125D JUMPI PUSH1 0x1 DUP11 ADD PUSH1 0x2 SSTORE PUSH1 0x40 MLOAD SWAP7 PUSH2 0x1C0 DUP9 ADD SWAP6 DUP9 DUP8 LT PUSH1 0x1 PUSH1 0x1 PUSH1 0x40 SHL SUB DUP9 GT OR PUSH2 0xB56 JUMPI DUP12 SWAP8 DUP10 SWAP8 PUSH1 0x40 MSTORE DUP9 DUP9 MSTORE PUSH1 0x20 DUP9 ADD SWAP7 DUP8 MSTORE PUSH1 0x40 DUP9 ADD SWAP4 DUP5 MSTORE PUSH1 0x60 DUP9 ADD SWAP5 DUP6 MSTORE PUSH1 0x80 DUP9 ADD DUP12 DUP2 MSTORE PUSH1 0xA0 DUP10 ADD SWAP2 DUP3 MSTORE PUSH1 0xC0 DUP10 ADD SWAP3 DUP4 MSTORE PUSH1 0xE0 DUP10 ADD SWAP4 DUP5 MSTORE PUSH2 0x100 DUP10 ADD SWAP6 PUSH1 0x0 DUP8 MSTORE PUSH2 0x120 DUP11 ADD SWAP6 CALLER DUP8 MSTORE PUSH2 0x140 DUP12 ADD SWAP9 DUP10 MSTORE PUSH2 0x160 DUP12 ADD SWAP10 PUSH1 0x0 DUP12 MSTORE PUSH2 0x1A0 PUSH2 0x180 DUP14 ADD SWAP13 DUP14 CALLVALUE SWAP1 MSTORE ADD SWAP13 DUP14 TIMESTAMP SWAP1 MSTORE PUSH1 0x0 MSTORE PUSH1 0x0 PUSH1 0x20 MSTORE PUSH1 0x1 PUSH1 0x40 PUSH1 0x0 KECCAK256 SWAP15 DUP16 SWAP1 MLOAD DUP2 SSTORE ADD SWAP1 MLOAD DUP1 MLOAD SWAP1 PUSH1 0x1 PUSH1 0x1 PUSH1 0x40 SHL SUB DUP3 GT PUSH2 0xB56 JUMPI DUP2 SWAP1 PUSH2 0x65B DUP5 SLOAD PUSH2 0x19BB JUMP JUMPDEST PUSH1 0x1F DUP2 GT PUSH2 0x120A JUMPI JUMPDEST POP PUSH1 0x20 SWAP1 PUSH1 0x1F DUP4 GT PUSH1 0x1 EQ PUSH2 0x11A5 JUMPI PUSH1 0x0 SWAP3 PUSH2 0x119A JUMPI JUMPDEST POP POP DUP2 PUSH1 0x1 SHL SWAP2 PUSH1 0x0 NOT SWAP1 PUSH1 0x3 SHL SHR NOT AND OR SWAP1 SSTORE JUMPDEST MLOAD DUP1 MLOAD PUSH1 0x2 DUP15 ADD SWAP2 PUSH1 0x1 PUSH1 0x1 PUSH1 0x40 SHL SUB DUP3 GT PUSH2 0xB56 JUMPI DUP2 SWAP1 PUSH2 0x6B2 DUP5 SLOAD PUSH2 0x19BB JUMP JUMPDEST PUSH1 0x1F DUP2 GT PUSH2 0x1147 JUMPI JUMPDEST POP PUSH1 0x20 SWAP1 PUSH1 0x1F DUP4 GT PUSH1 0x1 EQ PUSH2 0x10E2 JUMPI PUSH1 0x0 SWAP3 PUSH2 0x10D7 JUMPI JUMPDEST POP POP DUP2 PUSH1 0x1 SHL SWAP2 PUSH1 0x0 NOT SWAP1 PUSH1 0x3 SHL SHR NOT AND OR SWAP1 SSTORE JUMPDEST MLOAD DUP1 MLOAD PUSH1 0x3 DUP14 ADD SWAP2 PUSH1 0x1 PUSH1 0x1 PUSH1 0x40 SHL SUB DUP3 GT PUSH2 0xB56 JUMPI DUP2 SWAP1 PUSH2 0x709 DUP5 SLOAD PUSH2 0x19BB JUMP JUMPDEST PUSH1 0x1F DUP2 GT PUSH2 0x1084 JUMPI JUMPDEST POP PUSH1 0x20 SWAP1 PUSH1 0x1F DUP4 GT PUSH1 0x1 EQ PUSH2 0x101F JUMPI PUSH1 0x0 SWAP3 PUSH2 0x1014 JUMPI JUMPDEST POP POP DUP2 PUSH1 0x1 SHL SWAP2 PUSH1 0x0 NOT SWAP1 PUSH1 0x3 SHL SHR NOT AND OR SWAP1 SSTORE JUMPDEST MLOAD DUP1 MLOAD PUSH1 0x4 DUP13 ADD SWAP2 PUSH1 0x1 PUSH1 0x1 PUSH1 0x40 SHL SUB DUP3 GT PUSH2 0xB56 JUMPI DUP2 SWAP1 PUSH2 0x760 DUP5 SLOAD PUSH2 0x19BB JUMP JUMPDEST PUSH1 0x1F DUP2 GT PUSH2 0xFC1 JUMPI JUMPDEST POP PUSH1 0x20 SWAP1 PUSH1 0x1F DUP4 GT PUSH1 0x1 EQ PUSH2 0xF5C JUMPI PUSH1 0x0 SWAP3 PUSH2 0xF51 JUMPI JUMPDEST POP POP DUP2 PUSH1 0x1 SHL SWAP2 PUSH1 0x0 NOT SWAP1 PUSH1 0x3 SHL SHR NOT AND OR SWAP1 SSTORE JUMPDEST PUSH2 0xFFFF PUSH1 0x5 DUP12 ADD SWAP2 MLOAD AND PUSH2 0xFFFF NOT DUP3 SLOAD AND OR SWAP1 SSTORE PUSH1 0x6 DUP10 ADD SWAP1 MLOAD DUP1 MLOAD SWAP1 PUSH1 0x1 PUSH1 0x1 PUSH1 0x40 SHL SUB DUP3 GT PUSH2 0xB56 JUMPI DUP2 SWAP1 PUSH2 0x7CC DUP5 SLOAD PUSH2 0x19BB JUMP JUMPDEST PUSH1 0x1F DUP2 GT PUSH2 0xEFE JUMPI JUMPDEST POP PUSH1 0x20 SWAP1 PUSH1 0x1F DUP4 GT PUSH1 0x1 EQ PUSH2 0xE99 JUMPI PUSH1 0x0 SWAP3 PUSH2 0xE8E JUMPI JUMPDEST POP POP DUP2 PUSH1 0x1 SHL SWAP2 PUSH1 0x0 NOT SWAP1 PUSH1 0x3 SHL SHR NOT AND OR SWAP1 SSTORE JUMPDEST MLOAD DUP1 MLOAD PUSH1 0x7 DUP10 ADD SWAP2 PUSH1 0x1 PUSH1 0x1 PUSH1 0x40 SHL SUB DUP3 GT PUSH2 0xB56 JUMPI DUP2 SWAP1 PUSH2 0x823 DUP5 SLOAD PUSH2 0x19BB JUMP JUMPDEST PUSH1 0x1F DUP2 GT PUSH2 0xE3B JUMPI JUMPDEST POP PUSH1 0x20 SWAP1 PUSH1 0x1F DUP4 GT PUSH1 0x1 EQ PUSH2 0xDD6 JUMPI PUSH1 0x0 SWAP3 PUSH2 0xDCB JUMPI JUMPDEST POP POP DUP2 PUSH1 0x1 SHL SWAP2 PUSH1 0x0 NOT SWAP1 PUSH1 0x3 SHL SHR NOT AND OR SWAP1 SSTORE JUMPDEST PUSH1 0x8 DUP8 ADD SWAP2 MLOAD PUSH1 0x3 DUP2 LT ISZERO PUSH2 0xDB5 JUMPI PUSH2 0x871 SWAP1 DUP4 PUSH2 0x1B05 JUMP JUMPDEST MLOAD DUP2 SLOAD PUSH2 0x100 PUSH1 0x1 PUSH1 0xA8 SHL SUB NOT AND PUSH1 0x8 SWAP2 SWAP1 SWAP2 SHL PUSH2 0x100 PUSH1 0x1 PUSH1 0xA8 SHL SUB AND OR SWAP1 SSTORE MLOAD DUP1 MLOAD DUP1 MLOAD PUSH1 0x9 DUP8 ADD SWAP2 PUSH1 0x1 PUSH1 0x1 PUSH1 0x40 SHL SUB DUP3 GT PUSH2 0xB56 JUMPI DUP2 SWAP1 PUSH2 0x8B6 DUP5 SLOAD PUSH2 0x19BB JUMP JUMPDEST PUSH1 0x1F DUP2 GT PUSH2 0xD62 JUMPI JUMPDEST POP PUSH1 0x20 SWAP1 PUSH1 0x1F DUP4 GT PUSH1 0x1 EQ PUSH2 0xCFD JUMPI PUSH1 0x0 SWAP3 PUSH2 0xCF2 JUMPI JUMPDEST POP POP DUP2 PUSH1 0x1 SHL SWAP2 PUSH1 0x0 NOT SWAP1 PUSH1 0x3 SHL SHR NOT AND OR SWAP1 SSTORE JUMPDEST PUSH1 0xA DUP6 ADD PUSH1 0x20 DUP3 ADD MLOAD DUP1 MLOAD SWAP1 PUSH1 0x1 PUSH1 0x1 PUSH1 0x40 SHL SUB DUP3 GT PUSH2 0xB56 JUMPI DUP2 SWAP1 PUSH2 0x911 DUP5 SLOAD PUSH2 0x19BB JUMP JUMPDEST PUSH1 0x1F DUP2 GT PUSH2 0xC9F JUMPI JUMPDEST POP PUSH1 0x20 SWAP1 PUSH1 0x1F DUP4 GT PUSH1 0x1 EQ PUSH2 0xC3A JUMPI PUSH1 0x0 SWAP3 PUSH2 0xC2F JUMPI JUMPDEST POP POP DUP2 PUSH1 0x1 SHL SWAP2 PUSH1 0x0 NOT SWAP1 PUSH1 0x3 SHL SHR NOT AND OR SWAP1 SSTORE JUMPDEST PUSH1 0xB DUP6 ADD PUSH1 0x40 DUP3 ADD MLOAD DUP1 MLOAD SWAP1 PUSH1 0x1 PUSH1 0x1 PUSH1 0x40 SHL SUB DUP3 GT PUSH2 0xB56 JUMPI DUP2 SWAP1 PUSH2 0x96C DUP5 SLOAD PUSH2 0x19BB JUMP JUMPDEST PUSH1 0x1F DUP2 GT PUSH2 0xBDC JUMPI JUMPDEST POP PUSH1 0x20 SWAP1 PUSH1 0x1F DUP4 GT PUSH1 0x1 EQ PUSH2 0xB77 JUMPI PUSH1 0x0 SWAP3 PUSH2 0xB6C JUMPI JUMPDEST POP POP DUP2 PUSH1 0x1 SHL SWAP2 PUSH1 0x0 NOT SWAP1 PUSH1 0x3 SHL SHR NOT AND OR SWAP1 SSTORE JUMPDEST PUSH1 0x60 ADD MLOAD DUP1 MLOAD PUSH1 0xC DUP7 ADD SWAP2 PUSH1 0x1 PUSH1 0x1 PUSH1 0x40 SHL SUB DUP3 GT PUSH2 0xB56 JUMPI PUSH2 0x9C4 DUP4 SLOAD PUSH2 0x19BB JUMP JUMPDEST PUSH1 0x1F DUP2 GT PUSH2 0xB0E JUMPI JUMPDEST POP PUSH1 0x20 SWAP1 PUSH1 0x1F DUP4 GT PUSH1 0x1 EQ PUSH2 0xA99 JUMPI SWAP3 DUP3 PUSH2 0xA4A SWAP11 SWAP9 SWAP7 SWAP4 PUSH1 0xF SWAP7 SWAP4 PUSH1 0x20 SWAP12 SWAP10 SWAP7 PUSH1 0x0 SWAP3 PUSH2 0xA8E JUMPI JUMPDEST POP POP DUP2 PUSH1 0x1 SHL SWAP2 PUSH1 0x0 NOT SWAP1 PUSH1 0x3 SHL SHR NOT AND OR SWAP1 SSTORE JUMPDEST MLOAD PUSH1 0xD DUP6 ADD DUP1 SLOAD PUSH1 0x1 PUSH1 0x1 PUSH1 0xA0 SHL SUB NOT AND PUSH1 0x1 PUSH1 0x1 PUSH1 0xA0 SHL SUB SWAP3 SWAP1 SWAP3 AND SWAP2 SWAP1 SWAP2 OR SWAP1 SSTORE MLOAD PUSH1 0xE DUP5 ADD SSTORE MLOAD SWAP2 ADD SSTORE PUSH1 0x40 MLOAD SWAP1 MLOAD SWAP1 SWAP4 DUP5 SWAP3 DUP3 SWAP1 DUP5 SWAP1 PUSH2 0x1A99 JUMP JUMPDEST DUP2 ADD PUSH1 0x1 DUP2 MSTORE SUB ADD SWAP1 KECCAK256 PUSH1 0x1 PUSH1 0xFF NOT DUP3 SLOAD AND OR SWAP1 SSTORE PUSH1 0x40 MLOAD SWAP1 CALLVALUE DUP3 MSTORE PUSH32 0xAB87F20B706CC7FDDEDBD4B46F46C9033F880359FCEE906BFBE7A2DFF48D2B60 PUSH1 0x20 CALLER SWAP4 LOG3 STOP JUMPDEST ADD MLOAD SWAP1 POP DUP14 DUP1 PUSH2 0x9F6 JUMP JUMPDEST SWAP1 PUSH1 0x1F NOT DUP4 AND SWAP2 DUP5 PUSH1 0x0 MSTORE DUP2 PUSH1 0x0 KECCAK256 SWAP3 PUSH1 0x0 JUMPDEST DUP2 DUP2 LT PUSH2 0xAF6 JUMPI POP SWAP4 PUSH1 0xF SWAP7 SWAP4 PUSH1 0x20 SWAP12 SWAP10 SWAP7 SWAP4 PUSH1 0x1 SWAP4 DUP4 PUSH2 0xA4A SWAP16 SWAP14 SWAP12 SWAP9 LT PUSH2 0xADD JUMPI JUMPDEST POP POP POP DUP2 SHL ADD SWAP1 SSTORE PUSH2 0xA0B JUMP JUMPDEST ADD MLOAD PUSH1 0x0 NOT PUSH1 0xF8 DUP5 PUSH1 0x3 SHL AND SHR NOT AND SWAP1 SSTORE DUP14 DUP1 DUP1 PUSH2 0xAD0 JUMP JUMPDEST SWAP3 SWAP4 PUSH1 0x20 PUSH1 0x1 DUP2 SWAP3 DUP8 DUP7 ADD MLOAD DUP2 SSTORE ADD SWAP6 ADD SWAP4 ADD PUSH2 0xAAC JUMP JUMPDEST DUP4 PUSH1 0x0 MSTORE PUSH1 0x20 PUSH1 0x0 KECCAK256 PUSH1 0x1F DUP5 ADD PUSH1 0x5 SHR DUP2 ADD SWAP2 PUSH1 0x20 DUP6 LT PUSH2 0xB4C JUMPI JUMPDEST PUSH1 0x1F ADD PUSH1 0x5 SHR ADD SWAP1 JUMPDEST DUP2 DUP2 LT PUSH2 0xB40 JUMPI POP PUSH2 0x9CD JUMP JUMPDEST PUSH1 0x0 DUP2 SSTORE PUSH1 0x1 ADD PUSH2 0xB33 JUMP JUMPDEST SWAP1 SWAP2 POP DUP2 SWAP1 PUSH2 0xB2A JUMP JUMPDEST PUSH4 0x4E487B71 PUSH1 0xE0 SHL PUSH1 0x0 MSTORE PUSH1 0x41 PUSH1 0x4 MSTORE PUSH1 0x24 PUSH1 0x0 REVERT JUMPDEST ADD MLOAD SWAP1 POP DUP12 DUP1 PUSH2 0x98C JUMP JUMPDEST PUSH1 0x0 DUP6 DUP2 MSTORE DUP3 DUP2 KECCAK256 SWAP4 POP PUSH1 0x1F NOT DUP6 AND SWAP1 JUMPDEST DUP2 DUP2 LT PUSH2 0xBC4 JUMPI POP SWAP1 DUP5 PUSH1 0x1 SWAP6 SWAP5 SWAP4 SWAP3 LT PUSH2 0xBAB JUMPI JUMPDEST POP POP POP DUP2 SHL ADD SWAP1 SSTORE PUSH2 0x9A1 JUMP JUMPDEST ADD MLOAD PUSH1 0x0 NOT PUSH1 0xF8 DUP5 PUSH1 0x3 SHL AND SHR NOT AND SWAP1 SSTORE DUP12 DUP1 DUP1 PUSH2 0xB9E JUMP JUMPDEST SWAP3 SWAP4 PUSH1 0x20 PUSH1 0x1 DUP2 SWAP3 DUP8 DUP7 ADD MLOAD DUP2 SSTORE ADD SWAP6 ADD SWAP4 ADD PUSH2 0xB88 JUMP JUMPDEST SWAP1 SWAP2 POP DUP4 PUSH1 0x0 MSTORE PUSH1 0x20 PUSH1 0x0 KECCAK256 PUSH1 0x1F DUP5 ADD PUSH1 0x5 SHR DUP2 ADD SWAP2 PUSH1 0x20 DUP6 LT PUSH2 0xC25 JUMPI JUMPDEST SWAP1 PUSH1 0x1F DUP6 SWAP5 SWAP4 SWAP3 ADD PUSH1 0x5 SHR ADD SWAP1 JUMPDEST DUP2 DUP2 LT PUSH2 0xC16 JUMPI POP PUSH2 0x975 JUMP JUMPDEST PUSH1 0x0 DUP2 SSTORE DUP5 SWAP4 POP PUSH1 0x1 ADD PUSH2 0xC09 JUMP JUMPDEST SWAP1 SWAP2 POP DUP2 SWAP1 PUSH2 0xBFB JUMP JUMPDEST ADD MLOAD SWAP1 POP DUP12 DUP1 PUSH2 0x931 JUMP JUMPDEST PUSH1 0x0 DUP6 DUP2 MSTORE DUP3 DUP2 KECCAK256 SWAP4 POP PUSH1 0x1F NOT DUP6 AND SWAP1 JUMPDEST DUP2 DUP2 LT PUSH2 0xC87 JUMPI POP SWAP1 DUP5 PUSH1 0x1 SWAP6 SWAP5 SWAP4 SWAP3 LT PUSH2 0xC6E JUMPI JUMPDEST POP POP POP DUP2 SHL ADD SWAP1 SSTORE PUSH2 0x946 JUMP JUMPDEST ADD MLOAD PUSH1 0x0 NOT PUSH1 0xF8 DUP5 PUSH1 0x3 SHL AND SHR NOT AND SWAP1 SSTORE DUP12 DUP1 DUP1 PUSH2 0xC61 JUMP JUMPDEST SWAP3 SWAP4 PUSH1 0x20 PUSH1 0x1 DUP2 SWAP3 DUP8 DUP7 ADD MLOAD DUP2 SSTORE ADD SWAP6 ADD SWAP4 ADD PUSH2 0xC4B JUMP JUMPDEST SWAP1 SWAP2 POP DUP4 PUSH1 0x0 MSTORE PUSH1 0x20 PUSH1 0x0 KECCAK256 PUSH1 0x1F DUP5 ADD PUSH1 0x5 SHR DUP2 ADD SWAP2 PUSH1 0x20 DUP6 LT PUSH2 0xCE8 JUMPI JUMPDEST SWAP1 PUSH1 0x1F DUP6 SWAP5 SWAP4 SWAP3 ADD PUSH1 0x5 SHR ADD SWAP1 JUMPDEST DUP2 DUP2 LT PUSH2 0xCD9 JUMPI POP PUSH2 0x91A JUMP JUMPDEST PUSH1 0x0 DUP2 SSTORE DUP5 SWAP4 POP PUSH1 0x1 ADD PUSH2 0xCCC JUMP JUMPDEST SWAP1 SWAP2 POP DUP2 SWAP1 PUSH2 0xCBE JUMP JUMPDEST ADD MLOAD SWAP1 POP DUP12 DUP1 PUSH2 0x8D6 JUMP JUMPDEST PUSH1 0x0 DUP6 DUP2 MSTORE DUP3 DUP2 KECCAK256 SWAP4 POP PUSH1 0x1F NOT DUP6 AND SWAP1 JUMPDEST DUP2 DUP2 LT PUSH2 0xD4A JUMPI POP SWAP1 DUP5 PUSH1 0x1 SWAP6 SWAP5 SWAP4 SWAP3 LT PUSH2 0xD31 JUMPI JUMPDEST POP POP POP DUP2 SHL ADD SWAP1 SSTORE PUSH2 0x8EB JUMP JUMPDEST ADD MLOAD PUSH1 0x0 NOT PUSH1 0xF8 DUP5 PUSH1 0x3 SHL AND SHR NOT AND SWAP1 SSTORE DUP12 DUP1 DUP1 PUSH2 0xD24 JUMP JUMPDEST SWAP3 SWAP4 PUSH1 0x20 PUSH1 0x1 DUP2 SWAP3 DUP8 DUP7 ADD MLOAD DUP2 SSTORE ADD SWAP6 ADD SWAP4 ADD PUSH2 0xD0E JUMP JUMPDEST SWAP1 SWAP2 POP DUP4 PUSH1 0x0 MSTORE PUSH1 0x20 PUSH1 0x0 KECCAK256 PUSH1 0x1F DUP5 ADD PUSH1 0x5 SHR DUP2 ADD SWAP2 PUSH1 0x20 DUP6 LT PUSH2 0xDAB JUMPI JUMPDEST SWAP1 PUSH1 0x1F DUP6 SWAP5 SWAP4 SWAP3 ADD PUSH1 0x5 SHR ADD SWAP1 JUMPDEST DUP2 DUP2 LT PUSH2 0xD9C JUMPI POP PUSH2 0x8BF JUMP JUMPDEST PUSH1 0x0 DUP2 SSTORE DUP5 SWAP4 POP PUSH1 0x1 ADD PUSH2 0xD8F JUMP JUMPDEST SWAP1 SWAP2 POP DUP2 SWAP1 PUSH2 0xD81 JUMP JUMPDEST PUSH4 0x4E487B71 PUSH1 0xE0 SHL PUSH1 0x0 MSTORE PUSH1 0x21 PUSH1 0x4 MSTORE PUSH1 0x24 PUSH1 0x0 REVERT JUMPDEST ADD MLOAD SWAP1 POP DUP14 DUP1 PUSH2 0x843 JUMP JUMPDEST PUSH1 0x0 DUP6 DUP2 MSTORE DUP3 DUP2 KECCAK256 SWAP4 POP PUSH1 0x1F NOT DUP6 AND SWAP1 JUMPDEST DUP2 DUP2 LT PUSH2 0xE23 JUMPI POP SWAP1 DUP5 PUSH1 0x1 SWAP6 SWAP5 SWAP4 SWAP3 LT PUSH2 0xE0A JUMPI JUMPDEST POP POP POP DUP2 SHL ADD SWAP1 SSTORE PUSH2 0x858 JUMP JUMPDEST ADD MLOAD PUSH1 0x0 NOT PUSH1 0xF8 DUP5 PUSH1 0x3 SHL AND SHR NOT AND SWAP1 SSTORE DUP14 DUP1 DUP1 PUSH2 0xDFD JUMP JUMPDEST SWAP3 SWAP4 PUSH1 0x20 PUSH1 0x1 DUP2 SWAP3 DUP8 DUP7 ADD MLOAD DUP2 SSTORE ADD SWAP6 ADD SWAP4 ADD PUSH2 0xDE7 JUMP JUMPDEST SWAP1 SWAP2 POP DUP4 PUSH1 0x0 MSTORE PUSH1 0x20 PUSH1 0x0 KECCAK256 PUSH1 0x1F DUP5 ADD PUSH1 0x5 SHR DUP2 ADD SWAP2 PUSH1 0x20 DUP6 LT PUSH2 0xE84 JUMPI JUMPDEST SWAP1 PUSH1 0x1F DUP6 SWAP5 SWAP4 SWAP3 ADD PUSH1 0x5 SHR ADD SWAP1 JUMPDEST DUP2 DUP2 LT PUSH2 0xE75 JUMPI POP PUSH2 0x82C JUMP JUMPDEST PUSH1 0x0 DUP2 SSTORE DUP5 SWAP4 POP PUSH1 0x1 ADD PUSH2 0xE68 JUMP JUMPDEST SWAP1 SWAP2 POP DUP2 SWAP1 PUSH2 0xE5A JUMP JUMPDEST ADD MLOAD SWAP1 POP DUP15 DUP1 PUSH2 0x7EC JUMP JUMPDEST PUSH1 0x0 DUP6 DUP2 MSTORE DUP3 DUP2 KECCAK256 SWAP4 POP PUSH1 0x1F NOT DUP6 AND SWAP1 JUMPDEST DUP2 DUP2 LT PUSH2 0xEE6 JUMPI POP SWAP1 DUP5 PUSH1 0x1 SWAP6 SWAP5 SWAP4 SWAP3 LT PUSH2 0xECD JUMPI JUMPDEST POP POP POP DUP2 SHL ADD SWAP1 SSTORE PUSH2 0x801 JUMP JUMPDEST ADD MLOAD PUSH1 0x0 NOT PUSH1 0xF8 DUP5 PUSH1 0x3 SHL AND SHR NOT AND SWAP1 SSTORE DUP15 DUP1 DUP1 PUSH2 0xEC0 JUMP JUMPDEST SWAP3 SWAP4 PUSH1 0x20 PUSH1 0x1 DUP2 SWAP3 DUP8 DUP7 ADD MLOAD DUP2 SSTORE ADD SWAP6 ADD SWAP4 ADD PUSH2 0xEAA JUMP JUMPDEST SWAP1 SWAP2 POP DUP4 PUSH1 0x0 MSTORE PUSH1 0x20 PUSH1 0x0 KECCAK256 PUSH1 0x1F DUP5 ADD PUSH1 0x5 SHR DUP2 ADD SWAP2 PUSH1 0x20 DUP6 LT PUSH2 0xF47 JUMPI JUMPDEST SWAP1 PUSH1 0x1F DUP6 SWAP5 SWAP4 SWAP3 ADD PUSH1 0x5 SHR ADD SWAP1 JUMPDEST DUP2 DUP2 LT PUSH2 0xF38 JUMPI POP PUSH2 0x7D5 JUMP JUMPDEST PUSH1 0x0 DUP2 SSTORE DUP5 SWAP4 POP PUSH1 0x1 ADD PUSH2 0xF2B JUMP JUMPDEST SWAP1 SWAP2 POP DUP2 SWAP1 PUSH2 0xF1D JUMP JUMPDEST ADD MLOAD SWAP1 POP CODESIZE DUP1 PUSH2 0x780 JUMP JUMPDEST PUSH1 0x0 DUP6 DUP2 MSTORE DUP3 DUP2 KECCAK256 SWAP4 POP PUSH1 0x1F NOT DUP6 AND SWAP1 JUMPDEST DUP2 DUP2 LT PUSH2 0xFA9 JUMPI POP SWAP1 DUP5 PUSH1 0x1 SWAP6 SWAP5 SWAP4 SWAP3 LT PUSH2 0xF90 JUMPI JUMPDEST POP POP POP DUP2 SHL ADD SWAP1 SSTORE PUSH2 0x795 JUMP JUMPDEST ADD MLOAD PUSH1 0x0 NOT PUSH1 0xF8 DUP5 PUSH1 0x3 SHL AND SHR NOT AND SWAP1 SSTORE CODESIZE DUP1 DUP1 PUSH2 0xF83 JUMP JUMPDEST SWAP3 SWAP4 PUSH1 0x20 PUSH1 0x1 DUP2 SWAP3 DUP8 DUP7 ADD MLOAD DUP2 SSTORE ADD SWAP6 ADD SWAP4 ADD PUSH2 0xF6D JUMP JUMPDEST SWAP1 SWAP2 POP DUP4 PUSH1 0x0 MSTORE PUSH1 0x20 PUSH1 0x0 KECCAK256 PUSH1 0x1F DUP5 ADD PUSH1 0x5 SHR DUP2 ADD SWAP2 PUSH1 0x20 DUP6 LT PUSH2 0x100A JUMPI JUMPDEST SWAP1 PUSH1 0x1F DUP6 SWAP5 SWAP4 SWAP3 ADD PUSH1 0x5 SHR ADD SWAP1 JUMPDEST DUP2 DUP2 LT PUSH2 0xFFB JUMPI POP PUSH2 0x769 JUMP JUMPDEST PUSH1 0x0 DUP2 SSTORE DUP5 SWAP4 POP PUSH1 0x1 ADD PUSH2 0xFEE JUMP JUMPDEST SWAP1 SWAP2 POP DUP2 SWAP1 PUSH2 0xFE0 JUMP JUMPDEST ADD MLOAD SWAP1 POP CODESIZE DUP1 PUSH2 0x729 JUMP JUMPDEST PUSH1 0x0 DUP6 DUP2 MSTORE DUP3 DUP2 KECCAK256 SWAP4 POP PUSH1 0x1F NOT DUP6 AND SWAP1 JUMPDEST DUP2 DUP2 LT PUSH2 0x106C JUMPI POP SWAP1 DUP5 PUSH1 0x1 SWAP6 SWAP5 SWAP4 SWAP3 LT PUSH2 0x1053 JUMPI JUMPDEST POP POP POP DUP2 SHL ADD SWAP1 SSTORE PUSH2 0x73E JUMP JUMPDEST ADD MLOAD PUSH1 0x0 NOT PUSH1 0xF8 DUP5 PUSH1 0x3 SHL AND SHR NOT AND SWAP1 SSTORE CODESIZE DUP1 DUP1 PUSH2 0x1046 JUMP JUMPDEST SWAP3 SWAP4 PUSH1 0x20 PUSH1 0x1 DUP2 SWAP3 DUP8 DUP7 ADD MLOAD DUP2 SSTORE ADD SWAP6 ADD SWAP4 ADD PUSH2 0x1030 JUMP JUMPDEST SWAP1 SWAP2 POP DUP4 PUSH1 0x0 MSTORE PUSH1 0x20 PUSH1 0x0 KECCAK256 PUSH1 0x1F DUP5 ADD PUSH1 0x5 SHR DUP2 ADD SWAP2 PUSH1 0x20 DUP6 LT PUSH2 0x10CD JUMPI JUMPDEST SWAP1 PUSH1 0x1F DUP6 SWAP5 SWAP4 SWAP3 ADD PUSH1 0x5 SHR ADD SWAP1 JUMPDEST DUP2 DUP2 LT PUSH2 0x10BE JUMPI POP PUSH2 0x712 JUMP JUMPDEST PUSH1 0x0 DUP2 SSTORE DUP5 SWAP4 POP PUSH1 0x1 ADD PUSH2 0x10B1 JUMP JUMPDEST SWAP1 SWAP2 POP DUP2 SWAP1 PUSH2 0x10A3 JUMP JUMPDEST ADD MLOAD SWAP1 POP CODESIZE DUP1 PUSH2 0x6D2 JUMP JUMPDEST PUSH1 0x0 DUP6 DUP2 MSTORE DUP3 DUP2 KECCAK256 SWAP4 POP PUSH1 0x1F NOT DUP6 AND SWAP1 JUMPDEST DUP2 DUP2 LT PUSH2 0x112F JUMPI POP SWAP1 DUP5 PUSH1 0x1 SWAP6 SWAP5 SWAP4 SWAP3 LT PUSH2 0x1116 JUMPI JUMPDEST POP POP POP DUP2 SHL ADD SWAP1 SSTORE PUSH2 0x6E7 JUMP JUMPDEST ADD MLOAD PUSH1 0x0 NOT PUSH1 0xF8 DUP5 PUSH1 0x3 SHL AND SHR NOT AND SWAP1 SSTORE CODESIZE DUP1 DUP1 PUSH2 0x1109 JUMP JUMPDEST SWAP3 SWAP4 PUSH1 0x20 PUSH1 0x1 DUP2 SWAP3 DUP8 DUP7 ADD MLOAD DUP2 SSTORE ADD SWAP6 ADD SWAP4 ADD PUSH2 0x10F3 JUMP JUMPDEST SWAP1 SWAP2 POP DUP4 PUSH1 0x0 MSTORE PUSH1 0x20 PUSH1 0x0 KECCAK256 PUSH1 0x1F DUP5 ADD PUSH1 0x5 SHR DUP2 ADD SWAP2 PUSH1 0x20 DUP6 LT PUSH2 0x1190 JUMPI JUMPDEST SWAP1 PUSH1 0x1F DUP6 SWAP5 SWAP4 SWAP3 ADD PUSH1 0x5 SHR ADD SWAP1 JUMPDEST DUP2 DUP2 LT PUSH2 0x1181 JUMPI POP PUSH2 0x6BB JUMP JUMPDEST PUSH1 0x0 DUP2 SSTORE DUP5 SWAP4 POP PUSH1 0x1 ADD PUSH2 0x1174 JUMP JUMPDEST SWAP1 SWAP2 POP DUP2 SWAP1 PUSH2 0x1166 JUMP JUMPDEST ADD MLOAD SWAP1 POP CODESIZE DUP1 PUSH2 0x67B JUMP JUMPDEST PUSH1 0x0 DUP6 DUP2 MSTORE DUP3 DUP2 KECCAK256 SWAP4 POP PUSH1 0x1F NOT DUP6 AND SWAP1 JUMPDEST DUP2 DUP2 LT PUSH2 0x11F2 JUMPI POP SWAP1 DUP5 PUSH1 0x1 SWAP6 SWAP5 SWAP4 SWAP3 LT PUSH2 0x11D9 JUMPI JUMPDEST POP POP POP DUP2 SHL ADD SWAP1 SSTORE PUSH2 0x690 JUMP JUMPDEST ADD MLOAD PUSH1 0x0 NOT PUSH1 0xF8 DUP5 PUSH1 0x3 SHL AND SHR NOT AND SWAP1 SSTORE CODESIZE DUP1 DUP1 PUSH2 0x11CC JUMP JUMPDEST SWAP3 SWAP4 PUSH1 0x20 PUSH1 0x1 DUP2 SWAP3 DUP8 DUP7 ADD MLOAD DUP2 SSTORE ADD SWAP6 ADD SWAP4 ADD PUSH2 0x11B6 JUMP JUMPDEST SWAP1 SWAP2 POP DUP4 PUSH1 0x0 MSTORE PUSH1 0x20 PUSH1 0x0 KECCAK256 PUSH1 0x1F DUP5 ADD PUSH1 0x5 SHR DUP2 ADD SWAP2 PUSH1 0x20 DUP6 LT PUSH2 0x1253 JUMPI JUMPDEST SWAP1 PUSH1 0x1F DUP6 SWAP5 SWAP4 SWAP3 ADD PUSH1 0x5 SHR ADD SWAP1 JUMPDEST DUP2 DUP2 LT PUSH2 0x1244 JUMPI POP PUSH2 0x664 JUMP JUMPDEST PUSH1 0x0 DUP2 SSTORE DUP5 SWAP4 POP PUSH1 0x1 ADD PUSH2 0x1237 JUMP JUMPDEST SWAP1 SWAP2 POP DUP2 SWAP1 PUSH2 0x1229 JUMP JUMPDEST PUSH4 0x4E487B71 PUSH1 0xE0 SHL PUSH1 0x0 MSTORE PUSH1 0x11 PUSH1 0x4 MSTORE PUSH1 0x24 PUSH1 0x0 REVERT JUMPDEST PUSH1 0x40 MLOAD PUSH3 0x461BCD PUSH1 0xE5 SHL DUP2 MSTORE PUSH1 0x20 PUSH1 0x4 DUP3 ADD MSTORE PUSH1 0x19 PUSH1 0x24 DUP3 ADD MSTORE PUSH32 0x46656520746F6F206C6F7720283E3D20302E3031204554482900000000000000 PUSH1 0x44 DUP3 ADD MSTORE PUSH1 0x64 SWAP1 REVERT JUMPDEST PUSH1 0x40 MLOAD PUSH3 0x461BCD PUSH1 0xE5 SHL DUP2 MSTORE PUSH1 0x20 PUSH1 0x4 DUP3 ADD MSTORE PUSH1 0x1A PUSH1 0x24 DUP3 ADD MSTORE PUSH32 0x4C6963656E736520706C61746520616C72656164792075736564000000000000 PUSH1 0x44 DUP3 ADD MSTORE PUSH1 0x64 SWAP1 REVERT JUMPDEST PUSH1 0x40 MLOAD PUSH3 0x461BCD PUSH1 0xE5 SHL DUP2 MSTORE PUSH1 0x20 PUSH1 0x4 DUP3 ADD MSTORE PUSH1 0x16 PUSH1 0x24 DUP3 ADD MSTORE PUSH22 0x111BD8DD5B595B9D0812541194C81C995C5D5A5C9959 PUSH1 0x52 SHL PUSH1 0x44 DUP3 ADD MSTORE PUSH1 0x64 SWAP1 REVERT JUMPDEST PUSH1 0x40 MLOAD PUSH3 0x461BCD PUSH1 0xE5 SHL DUP2 MSTORE PUSH1 0x20 PUSH1 0x4 DUP3 ADD MSTORE PUSH1 0x18 PUSH1 0x24 DUP3 ADD MSTORE PUSH32 0x496E76616C6964206D616E756661637475726520796561720000000000000000 PUSH1 0x44 DUP3 ADD MSTORE PUSH1 0x64 SWAP1 REVERT JUMPDEST POP PUSH2 0x7E9 DUP5 GT ISZERO PUSH2 0x53D JUMP JUMPDEST PUSH1 0x40 MLOAD PUSH3 0x461BCD PUSH1 0xE5 SHL DUP2 MSTORE PUSH1 0x20 PUSH1 0x4 DUP3 ADD MSTORE PUSH1 0x16 PUSH1 0x24 DUP3 ADD MSTORE PUSH22 0x131A58D95B9CD9481C1B185D19481C995C5D5A5C9959 PUSH1 0x52 SHL PUSH1 0x44 DUP3 ADD MSTORE PUSH1 0x64 SWAP1 REVERT JUMPDEST PUSH1 0x40 MLOAD PUSH3 0x461BCD PUSH1 0xE5 SHL DUP2 MSTORE PUSH1 0x20 PUSH1 0x4 DUP3 ADD MSTORE PUSH1 0xE PUSH1 0x24 DUP3 ADD MSTORE PUSH14 0x10DBDB1BDC881C995C5D5A5C9959 PUSH1 0x92 SHL PUSH1 0x44 DUP3 ADD MSTORE PUSH1 0x64 SWAP1 REVERT JUMPDEST PUSH1 0x40 MLOAD PUSH3 0x461BCD PUSH1 0xE5 SHL DUP2 MSTORE PUSH1 0x20 PUSH1 0x4 DUP3 ADD MSTORE PUSH1 0xE PUSH1 0x24 DUP3 ADD MSTORE PUSH14 0x135BD9195B081C995C5D5A5C9959 PUSH1 0x92 SHL PUSH1 0x44 DUP3 ADD MSTORE PUSH1 0x64 SWAP1 REVERT JUMPDEST PUSH1 0x40 MLOAD PUSH3 0x461BCD PUSH1 0xE5 SHL DUP2 MSTORE PUSH1 0x20 PUSH1 0x4 DUP3 ADD MSTORE PUSH1 0xE PUSH1 0x24 DUP3 ADD MSTORE PUSH14 0x109C985B99081C995C5D5A5C9959 PUSH1 0x92 SHL PUSH1 0x44 DUP3 ADD MSTORE PUSH1 0x64 SWAP1 REVERT JUMPDEST PUSH1 0x40 MLOAD PUSH3 0x461BCD PUSH1 0xE5 SHL DUP2 MSTORE PUSH1 0x20 PUSH1 0x4 DUP3 ADD MSTORE PUSH1 0x14 PUSH1 0x24 DUP3 ADD MSTORE PUSH20 0x24B73B30B634B210383437B73290373AB6B132B9 PUSH1 0x61 SHL PUSH1 0x44 DUP3 ADD MSTORE PUSH1 0x64 SWAP1 REVERT JUMPDEST PUSH1 0x40 MLOAD PUSH3 0x461BCD PUSH1 0xE5 SHL DUP2 MSTORE PUSH1 0x20 PUSH1 0x4 DUP3 ADD MSTORE PUSH1 0x10 PUSH1 0x24 DUP3 ADD MSTORE PUSH16 0x1059191C995CDCC81C995C5D5A5C9959 PUSH1 0x82 SHL PUSH1 0x44 DUP3 ADD MSTORE PUSH1 0x64 SWAP1 REVERT JUMPDEST PUSH1 0x40 MLOAD PUSH3 0x461BCD PUSH1 0xE5 SHL DUP2 MSTORE PUSH1 0x20 PUSH1 0x4 DUP3 ADD MSTORE PUSH1 0xD PUSH1 0x24 DUP3 ADD MSTORE PUSH13 0x10D0D0D1081C995C5D5A5C9959 PUSH1 0x9A SHL PUSH1 0x44 DUP3 ADD MSTORE PUSH1 0x64 SWAP1 REVERT JUMPDEST PUSH1 0x40 MLOAD PUSH3 0x461BCD PUSH1 0xE5 SHL DUP2 MSTORE PUSH1 0x20 PUSH1 0x4 DUP3 ADD MSTORE PUSH1 0x12 PUSH1 0x24 DUP3 ADD MSTORE PUSH18 0x119D5B1B081B985B59481C995C5D5A5C9959 PUSH1 0x72 SHL PUSH1 0x44 DUP3 ADD MSTORE PUSH1 0x64 SWAP1 REVERT JUMPDEST CALLVALUE PUSH2 0x9D JUMPI PUSH1 0x40 CALLDATASIZE PUSH1 0x3 NOT ADD SLT PUSH2 0x9D JUMPI PUSH1 0x24 CALLDATALOAD PUSH1 0x4 CALLDATALOAD PUSH1 0x3 DUP3 LT ISZERO PUSH2 0x9D JUMPI PUSH1 0x3 SLOAD PUSH1 0x1 PUSH1 0x1 PUSH1 0xA0 SHL SUB AND CALLER SUB PUSH2 0x17FB JUMPI DUP1 ISZERO ISZERO DUP1 PUSH2 0x17F0 JUMPI JUMPDEST ISZERO PUSH2 0x17B6 JUMPI PUSH1 0x1 DUP3 EQ PUSH1 0x0 DUP2 DUP1 ISZERO PUSH2 0x17A9 JUMPI JUMPDEST ISZERO PUSH2 0x1773 JUMPI DUP3 PUSH1 0x0 MSTORE PUSH1 0x0 PUSH1 0x20 MSTORE PUSH1 0x40 PUSH1 0x0 KECCAK256 SWAP2 PUSH1 0x8 DUP4 ADD SWAP2 PUSH1 0xFF DUP4 SLOAD AND PUSH1 0x3 DUP2 LT ISZERO PUSH2 0xDB5 JUMPI PUSH2 0x172E JUMPI PUSH2 0x15D2 DUP7 DUP5 PUSH2 0x1B05 JUMP JUMPDEST PUSH1 0xD DUP5 ADD DUP1 SLOAD PUSH1 0x1 PUSH1 0x1 PUSH1 0xA0 SHL SUB NOT AND CALLER OR SWAP1 SSTORE PUSH2 0xDB5 JUMPI ISZERO PUSH2 0x1660 JUMPI POP PUSH1 0x0 DUP1 DUP1 DUP1 SWAP4 PUSH1 0xE PUSH1 0x1 DUP1 PUSH1 0xA0 SHL SUB PUSH1 0x3 SLOAD AND SWAP2 ADD SLOAD SWAP1 DUP3 DUP3 ISZERO PUSH2 0x1657 JUMPI JUMPDEST CALL ISZERO PUSH2 0x164B JUMPI JUMPDEST PUSH2 0x1623 PUSH1 0x40 MLOAD DUP1 SWAP4 PUSH2 0x1AE1 JUMP JUMPDEST PUSH32 0xF293BD2612D4B17249812EC1B22C737269C823C19ABAB1D9D9DDB37D7D754FCD PUSH1 0x20 CALLER SWAP4 LOG3 STOP JUMPDEST PUSH1 0x40 MLOAD RETURNDATASIZE PUSH1 0x0 DUP3 RETURNDATACOPY RETURNDATASIZE SWAP1 REVERT JUMPDEST POP PUSH2 0x8FC PUSH2 0x160F JUMP JUMPDEST SLOAD PUSH1 0xE DUP3 ADD SLOAD PUSH1 0x0 SWAP2 DUP3 SWAP2 DUP3 SWAP2 DUP3 SWAP2 SWAP1 PUSH1 0x8 SHR PUSH1 0x1 PUSH1 0x1 PUSH1 0xA0 SHL SUB AND DUP3 DUP3 ISZERO PUSH2 0x1725 JUMPI JUMPDEST CALL ISZERO PUSH2 0x164B JUMPI PUSH1 0x4 ADD PUSH1 0x40 MLOAD SWAP1 DUP2 PUSH1 0x0 DUP3 SLOAD SWAP3 PUSH2 0x16A0 DUP5 PUSH2 0x19BB JUMP JUMPDEST SWAP4 PUSH1 0x1 DUP2 AND SWAP1 DUP2 ISZERO PUSH2 0x170B JUMPI POP PUSH1 0x1 EQ PUSH2 0x16CF JUMPI JUMPDEST POP PUSH1 0x1 DUP2 MSTORE SUB PUSH1 0x20 ADD SWAP1 SWAP2 KECCAK256 DUP1 SLOAD PUSH1 0xFF NOT AND SWAP1 SSTORE POP PUSH2 0x1616 JUMP JUMPDEST SWAP2 POP POP PUSH1 0x0 MSTORE DUP2 PUSH1 0x20 PUSH1 0x0 KECCAK256 PUSH1 0x0 SWAP1 JUMPDEST DUP4 DUP3 LT PUSH2 0x16F3 JUMPI POP POP PUSH1 0x20 SWAP2 DUP2 ADD DUP7 PUSH2 0x16B5 JUMP JUMPDEST PUSH1 0x20 SWAP2 SWAP3 POP DUP1 PUSH1 0x1 SWAP2 SLOAD DUP5 DUP8 ADD MSTORE ADD SWAP2 ADD DUP4 SWAP2 PUSH2 0x16DF JUMP JUMPDEST PUSH1 0xFF NOT AND DUP5 MSTORE POP PUSH1 0x20 SWAP4 DUP1 ISZERO ISZERO MUL DUP4 ADD SWAP2 POP DUP8 SWAP1 POP PUSH2 0x16B5 JUMP JUMPDEST POP PUSH2 0x8FC PUSH2 0x1684 JUMP JUMPDEST PUSH1 0x40 MLOAD PUSH3 0x461BCD PUSH1 0xE5 SHL DUP2 MSTORE PUSH1 0x20 PUSH1 0x4 DUP3 ADD MSTORE PUSH1 0x18 PUSH1 0x24 DUP3 ADD MSTORE PUSH32 0x56656869636C6520616C72656164792072657669657765640000000000000000 PUSH1 0x44 DUP3 ADD MSTORE PUSH1 0x64 SWAP1 REVERT JUMPDEST PUSH1 0x40 MLOAD PUSH3 0x461BCD PUSH1 0xE5 SHL DUP2 MSTORE PUSH1 0x20 PUSH1 0x4 DUP3 ADD MSTORE PUSH1 0xE PUSH1 0x24 DUP3 ADD MSTORE PUSH14 0x496E76616C696420737461747573 PUSH1 0x90 SHL PUSH1 0x44 DUP3 ADD MSTORE PUSH1 0x64 SWAP1 REVERT JUMPDEST POP POP PUSH1 0x0 PUSH1 0x2 DUP5 EQ PUSH2 0x159D JUMP JUMPDEST PUSH1 0x40 MLOAD PUSH3 0x461BCD PUSH1 0xE5 SHL DUP2 MSTORE PUSH1 0x20 PUSH1 0x4 DUP3 ADD MSTORE PUSH1 0x12 PUSH1 0x24 DUP3 ADD MSTORE PUSH18 0x125B9D985B1A590815995A1A58DB19481251 PUSH1 0x72 SHL PUSH1 0x44 DUP3 ADD MSTORE PUSH1 0x64 SWAP1 REVERT JUMPDEST POP PUSH1 0x2 SLOAD DUP2 LT PUSH2 0x158A JUMP JUMPDEST PUSH1 0x40 MLOAD PUSH3 0x461BCD PUSH1 0xE5 SHL DUP2 MSTORE PUSH1 0x20 PUSH1 0x4 DUP3 ADD MSTORE PUSH1 0x22 PUSH1 0x24 DUP3 ADD MSTORE PUSH32 0x4F6E6C792061646D696E2063616E20706572666F726D20746869732061637469 PUSH1 0x44 DUP3 ADD MSTORE PUSH2 0x37B7 PUSH1 0xF1 SHL PUSH1 0x64 DUP3 ADD MSTORE PUSH1 0x84 SWAP1 REVERT JUMPDEST CALLVALUE PUSH2 0x9D JUMPI PUSH1 0x0 CALLDATASIZE PUSH1 0x3 NOT ADD SLT PUSH2 0x9D JUMPI PUSH1 0x2 SLOAD PUSH1 0x0 NOT DUP2 ADD SWAP1 DUP1 DUP3 GT PUSH2 0x125D JUMPI PUSH2 0x188E PUSH2 0x1878 DUP4 PUSH2 0x1AEE JUMP JUMPDEST SWAP3 PUSH2 0x1886 PUSH1 0x40 MLOAD SWAP5 DUP6 PUSH2 0x1944 JUMP JUMPDEST DUP1 DUP5 MSTORE PUSH2 0x1AEE JUMP JUMPDEST PUSH1 0x20 DUP4 ADD SWAP2 SWAP1 PUSH1 0x1F NOT ADD CALLDATASIZE DUP4 CALLDATACOPY PUSH1 0x1 JUMPDEST DUP2 DUP2 LT PUSH2 0x18EA JUMPI DUP3 DUP5 PUSH1 0x40 MLOAD SWAP2 DUP3 SWAP2 PUSH1 0x20 DUP4 ADD SWAP1 PUSH1 0x20 DUP5 MSTORE MLOAD DUP1 SWAP2 MSTORE PUSH1 0x40 DUP4 ADD SWAP2 SWAP1 PUSH1 0x0 JUMPDEST DUP2 DUP2 LT PUSH2 0x18D1 JUMPI POP POP POP SUB SWAP1 RETURN JUMPDEST DUP3 MLOAD DUP5 MSTORE DUP6 SWAP5 POP PUSH1 0x20 SWAP4 DUP5 ADD SWAP4 SWAP1 SWAP3 ADD SWAP2 PUSH1 0x1 ADD PUSH2 0x18C3 JUMP JUMPDEST PUSH1 0x0 NOT DUP2 ADD SWAP1 DUP1 DUP3 GT PUSH2 0x125D JUMPI DUP5 MLOAD DUP3 LT ISZERO PUSH2 0x1913 JUMPI DUP1 PUSH1 0x20 PUSH1 0x1 SWAP4 PUSH1 0x5 SHL DUP8 ADD ADD MSTORE ADD PUSH2 0x189E JUMP JUMPDEST PUSH4 0x4E487B71 PUSH1 0xE0 SHL PUSH1 0x0 MSTORE PUSH1 0x32 PUSH1 0x4 MSTORE PUSH1 0x24 PUSH1 0x0 REVERT JUMPDEST PUSH1 0x80 DUP2 ADD SWAP1 DUP2 LT PUSH1 0x1 PUSH1 0x1 PUSH1 0x40 SHL SUB DUP3 GT OR PUSH2 0xB56 JUMPI PUSH1 0x40 MSTORE JUMP JUMPDEST SWAP1 PUSH1 0x1F DUP1 NOT SWAP2 ADD AND DUP2 ADD SWAP1 DUP2 LT PUSH1 0x1 PUSH1 0x1 PUSH1 0x40 SHL SUB DUP3 GT OR PUSH2 0xB56 JUMPI PUSH1 0x40 MSTORE JUMP JUMPDEST DUP2 PUSH1 0x1F DUP3 ADD SLT ISZERO PUSH2 0x9D JUMPI DUP1 CALLDATALOAD SWAP1 PUSH1 0x1 PUSH1 0x1 PUSH1 0x40 SHL SUB DUP3 GT PUSH2 0xB56 JUMPI PUSH1 0x40 MLOAD SWAP3 PUSH2 0x1999 PUSH1 0x1F DUP5 ADD PUSH1 0x1F NOT AND PUSH1 0x20 ADD DUP6 PUSH2 0x1944 JUMP JUMPDEST DUP3 DUP5 MSTORE PUSH1 0x20 DUP4 DUP4 ADD ADD GT PUSH2 0x9D JUMPI DUP2 PUSH1 0x0 SWAP3 PUSH1 0x20 DUP1 SWAP4 ADD DUP4 DUP7 ADD CALLDATACOPY DUP4 ADD ADD MSTORE SWAP1 JUMP JUMPDEST SWAP1 PUSH1 0x1 DUP3 DUP2 SHR SWAP3 AND DUP1 ISZERO PUSH2 0x19EB JUMPI JUMPDEST PUSH1 0x20 DUP4 LT EQ PUSH2 0x19D5 JUMPI JUMP JUMPDEST PUSH4 0x4E487B71 PUSH1 0xE0 SHL PUSH1 0x0 MSTORE PUSH1 0x22 PUSH1 0x4 MSTORE PUSH1 0x24 PUSH1 0x0 REVERT JUMPDEST SWAP2 PUSH1 0x7F AND SWAP2 PUSH2 0x19CA JUMP JUMPDEST SWAP1 PUSH1 0x40 MLOAD SWAP2 DUP3 PUSH1 0x0 DUP3 SLOAD SWAP3 PUSH2 0x1A09 DUP5 PUSH2 0x19BB JUMP JUMPDEST DUP1 DUP5 MSTORE SWAP4 PUSH1 0x1 DUP2 AND SWAP1 DUP2 ISZERO PUSH2 0x1A77 JUMPI POP PUSH1 0x1 EQ PUSH2 0x1A30 JUMPI JUMPDEST POP PUSH2 0x1A2E SWAP3 POP SUB DUP4 PUSH2 0x1944 JUMP JUMPDEST JUMP JUMPDEST SWAP1 POP PUSH1 0x0 SWAP3 SWAP2 SWAP3 MSTORE PUSH1 0x20 PUSH1 0x0 KECCAK256 SWAP1 PUSH1 0x0 SWAP2 JUMPDEST DUP2 DUP4 LT PUSH2 0x1A5B JUMPI POP POP SWAP1 PUSH1 0x20 PUSH2 0x1A2E SWAP3 DUP3 ADD ADD CODESIZE PUSH2 0x1A21 JUMP JUMPDEST PUSH1 0x20 SWAP2 SWAP4 POP DUP1 PUSH1 0x1 SWAP2 SLOAD DUP4 DUP6 DUP10 ADD ADD MSTORE ADD SWAP2 ADD SWAP1 SWAP2 DUP5 SWAP3 PUSH2 0x1A42 JUMP JUMPDEST SWAP1 POP PUSH1 0x20 SWAP3 POP PUSH2 0x1A2E SWAP5 SWAP2 POP PUSH1 0xFF NOT AND DUP3 DUP5 ADD MSTORE ISZERO ISZERO PUSH1 0x5 SHL DUP3 ADD ADD CODESIZE PUSH2 0x1A21 JUMP JUMPDEST PUSH1 0x0 JUMPDEST DUP4 DUP2 LT PUSH2 0x1AAC JUMPI POP POP PUSH1 0x0 SWAP2 ADD MSTORE JUMP JUMPDEST DUP2 DUP2 ADD MLOAD DUP4 DUP3 ADD MSTORE PUSH1 0x20 ADD PUSH2 0x1A9C JUMP JUMPDEST SWAP1 PUSH1 0x20 SWAP2 PUSH2 0x1AD5 DUP2 MLOAD DUP1 SWAP3 DUP2 DUP6 MSTORE DUP6 DUP1 DUP7 ADD SWAP2 ADD PUSH2 0x1A99 JUMP JUMPDEST PUSH1 0x1F ADD PUSH1 0x1F NOT AND ADD ADD SWAP1 JUMP JUMPDEST SWAP1 PUSH1 0x3 DUP3 LT ISZERO PUSH2 0xDB5 JUMPI MSTORE JUMP JUMPDEST PUSH1 0x1 PUSH1 0x1 PUSH1 0x40 SHL SUB DUP2 GT PUSH2 0xB56 JUMPI PUSH1 0x5 SHL PUSH1 0x20 ADD SWAP1 JUMP JUMPDEST SWAP1 PUSH1 0x3 DUP2 LT ISZERO PUSH2 0xDB5 JUMPI PUSH1 0xFF DUP1 NOT DUP4 SLOAD AND SWAP2 AND OR SWAP1 SSTORE JUMP INVALID LOG2 PUSH5 0x6970667358 0x22 SLT KECCAK256 0xB1 SLOAD PUSH2 0x8F40 SWAP15 PUSH17 0xC5906BCE35C6E73BF1FC344EFB82E6C9C9 JUMPDEST 0xAB BLOCKHASH PREVRANDAO PUSH21 0x857C4F64736F6C634300081C003300000000000000 "},"methodIdentifiers":{"MIN_REGISTRATION_FEE()":"418cc2ae","adminAddress()":"fc6f9468","getAllVehicleIds()":"1f499542","isLicensePlateUsed(string)":"40feca1c","nextVehicleId()":"4acdca9f","registerVehicle((string,string,string,string),string,string,string,string,uint16,string,string)":"39004434","reviewVehicle(uint256,uint8)":"2aa660b9","vehicles(uint256)":"b8ba95fa"}}}}}