{
  "_format": "hh-sol-artifact-1",
  "contractName": "VehicleRegistration",
  "sourceName": "contracts/VehicleRegistration.sol",
  "abi": [
    {
      "inputs": [
        {
          "internalType": "address",
          "name": "_adminAddress",
          "type": "address"
        }
      ],
      "stateMutability": "nonpayable",
      "type": "constructor"
    },
    {
      "anonymous": false,
      "inputs": [
        {
          "indexed": true,
          "internalType": "uint256",
          "name": "vehicleId",
          "type": "uint256"
        },
        {
          "indexed": false,
          "internalType": "enum VehicleRegistration.VehicleStatus",
          "name": "newStatus",
          "type": "uint8"
        },
        {
          "indexed": true,
          "internalType": "address",
          "name": "reviewer",
          "type": "address"
        }
      ],
      "name": "VehicleReviewed",
      "type": "event"
    },
    {
      "anonymous": false,
      "inputs": [
        {
          "indexed": true,
          "internalType": "uint256",
          "name": "vehicleId",
          "type": "uint256"
        },
        {
          "indexed": true,
          "internalType": "address",
          "name": "owner",
          "type": "address"
        },
        {
          "indexed": false,
          "internalType": "uint256",
          "name": "fee",
          "type": "uint256"
        }
      ],
      "name": "VehicleSubmitted",
      "type": "event"
    },
    {
      "inputs": [],
      "name": "MIN_REGISTRATION_FEE",
      "outputs": [
        {
          "internalType": "uint256",
          "name": "",
          "type": "uint256"
        }
      ],
      "stateMutability": "view",
      "type": "function"
    },
    {
      "inputs": [],
      "name": "adminAddress",
      "outputs": [
        {
          "internalType": "address",
          "name": "",
          "type": "address"
        }
      ],
      "stateMutability": "view",
      "type": "function"
    },
    {
      "inputs": [],
      "name": "getAllVehicleIds",
      "outputs": [
        {
          "internalType": "uint256[]",
          "name": "",
          "type": "uint256[]"
        }
      ],
      "stateMutability": "view",
      "type": "function"
    },
    {
      "inputs": [
        {
          "internalType": "string",
          "name": "_plate",
          "type": "string"
        }
      ],
      "name": "isLicensePlateUsed",
      "outputs": [
        {
          "internalType": "bool",
          "name": "",
          "type": "bool"
        }
      ],
      "stateMutability": "view",
      "type": "function"
    },
    {
      "inputs": [],
      "name": "nextVehicleId",
      "outputs": [
        {
          "internalType": "uint256",
          "name": "",
          "type": "uint256"
        }
      ],
      "stateMutability": "view",
      "type": "function"
    },
    {
      "inputs": [
        {
          "components": [
            {
              "internalType": "string",
              "name": "fullName",
              "type": "string"
            },
            {
              "internalType": "string",
              "name": "cccd",
              "type": "string"
            },
            {
              "internalType": "string",
              "name": "addressInfo",
              "type": "string"
            },
            {
              "internalType": "string",
              "name": "phone",
              "type": "string"
            }
          ],
          "internalType": "struct VehicleRegistration.OwnerInfo",
          "name": "_ownerInfo",
          "type": "tuple"
        },
        {
          "internalType": "string",
          "name": "_brand",
          "type": "string"
        },
        {
          "internalType": "string",
          "name": "_model",
          "type": "string"
        },
        {
          "internalType": "string",
          "name": "_color",
          "type": "string"
        },
        {
          "internalType": "string",
          "name": "_licensePlate",
          "type": "string"
        },
        {
          "internalType": "uint16",
          "name": "_manufactureYear",
          "type": "uint16"
        },
        {
          "internalType": "string",
          "name": "_documentIpfsHash",
          "type": "string"
        },
        {
          "internalType": "string",
          "name": "_vehicleImageIpfsHash",
          "type": "string"
        }
      ],
      "name": "registerVehicle",
      "outputs": [],
      "stateMutability": "payable",
      "type": "function"
    },
    {
      "inputs": [
        {
          "internalType": "uint256",
          "name": "_vehicleId",
          "type": "uint256"
        },
        {
          "internalType": "enum VehicleRegistration.VehicleStatus",
          "name": "_newStatus",
          "type": "uint8"
        }
      ],
      "name": "reviewVehicle",
      "outputs": [],
      "stateMutability": "nonpayable",
      "type": "function"
    },
    {
      "inputs": [
        {
          "internalType": "uint256",
          "name": "",
          "type": "uint256"
        }
      ],
      "name": "vehicles",
      "outputs": [
        {
          "internalType": "uint256",
          "name": "vehicleId",
          "type": "uint256"
        },
        {
          "internalType": "string",
          "name": "brand",
          "type": "string"
        },
        {
          "internalType": "string",
          "name": "model",
          "type": "string"
        },
        {
          "internalType": "string",
          "name": "color",
          "type": "string"
        },
        {
          "internalType": "string",
          "name": "licensePlate",
          "type": "string"
        },
        {
          "internalType": "uint16",
          "name": "manufactureYear",
          "type": "uint16"
        },
        {
          "internalType": "string",
          "name": "documentIpfsHash",
          "type": "string"
        },
        {
          "internalType": "string",
          "name": "vehicleImageIpfsHash",
          "type": "string"
        },
        {
          "internalType": "enum VehicleRegistration.VehicleStatus",
          "name": "status",
          "type": "uint8"
        },
        {
          "internalType": "address payable",
          "name": "walletAddress",
          "type": "address"
        },
        {
          "components": [
            {
              "internalType": "string",
              "name": "fullName",
              "type": "string"
            },
            {
              "internalType": "string",
              "name": "cccd",
              "type": "string"
            },
            {
              "internalType": "string",
              "name": "addressInfo",
              "type": "string"
            },
            {
              "internalType": "string",
              "name": "phone",
              "type": "string"
            }
          ],
          "internalType": "struct VehicleRegistration.OwnerInfo",
          "name": "ownerInfo",
          "type": "tuple"
        },
        {
          "internalType": "address",
          "name": "reviewer",
          "type": "address"
        },
        {
          "internalType": "uint256",
          "name": "fee",
          "type": "uint256"
        },
        {
          "internalType": "uint256",
          "name": "createdAt",
          "type": "uint256"
        }
      ],
      "stateMutability": "view",
      "type": "function"
    }
  ],
  "bytecode": "0x608034607557601f611be438819003918201601f19168301916001600160401b03831184841017607a57808492602094604052833981010312607557516001600160a01b038116908190036075576001600255600380546001600160a01b031916919091179055604051611b5390816100918239f35b600080fd5b634e487b7160e01b600052604160045260246000fdfe6080604052600436101561001257600080fd5b60003560e01c80631f4995421461184b5780632aa660b91461154f578063390044341461034757806340feca1c146102e6578063418cc2ae146102c45780634acdca9f146102a6578063b8ba95fa146100a25763fc6f94681461007457600080fd5b3461009d57600036600319011261009d576003546040516001600160a01b039091168152602090f35b600080fd5b3461009d57602036600319011261009d5760043560005260006020526040600020805490600181016100d3906119f5565b906100e0600282016119f5565b6100ec600383016119f5565b916100f9600482016119f5565b600582015461ffff169061010f600684016119f5565b9061011c600785016119f5565b926008850154936040519361013085611929565b61013c600988016119f5565b855261014a600a88016119f5565b602086019081529261015e600b89016119f5565b6040870190815294610172600c8a016119f5565b6060880152600160a01b60019003600d8a0154169a600e8a015499600f01549a6040519e8f9e8f918252602082016101c090526101c082016101b391611abc565b9080820390604001526101c591611abc565b8d810360608f01526101d691611abc565b8c810360808e01526101e791611abc565b9060a08c01528a810360c08c01526101fe91611abc565b89810360e08b015261020f91611abc565b936102216101008a0160ff8316611ae1565b60081c6001600160a01b0316610120890152878403610140890152825160808086526102509190860190611abc565b905190848103602086015261026491611abc565b905190838103604085015261027891611abc565b906060015191808203906060015261028f91611abc565b926101608501526101808401526101a08301520390f35b3461009d57600036600319011261009d576020600254604051908152f35b3461009d57600036600319011261009d576020604051662386f26fc100008152f35b3461009d57602036600319011261009d576004356001600160401b03811161009d5760ff610331602061031e81943690600401611965565b8160405193828580945193849201611a99565b8101600181520301902054166040519015158152f35b61010036600319011261009d576004356001600160401b03811161009d576080600319823603011261009d5760405161037f81611929565b81600401356001600160401b03811161009d576103a29060043691850101611965565b815260248201356001600160401b03811161009d576103c79060043691850101611965565b906020810191825260448301356001600160401b03811161009d576103f29060043691860101611965565b92604082019384526064810135906001600160401b03821161009d57600461041d9236920101611965565b91606082019283526024356001600160401b03811161009d57610444903690600401611965565b926044356001600160401b03811161009d57610464903690600401611965565b946064356001600160401b03811161009d57610484903690600401611965565b946084356001600160401b03811161009d576104a4903690600401611965565b9460a4359361ffff851680950361009d5760c4356001600160401b03811161009d576104d4903690600401611965565b9360e4356001600160401b03811161009d576104f4903690600401611965565b9683515115611515575151156114e0575151156114a85760099051511061146c5781511561143657875115611400578651156113ca5785511561138c576107bc84101580611380575b1561133b578251156112fd576040519660ff88602081816105658c8051928391019e8f611a99565b8101600181520301902054166112b857662386f26fc10000341061127357600254986000198a1461125d5760018a01600255604051966101c08801958887106001600160401b03881117610b56578b978997604052888852602088019687526040880193845260608801948552608088018b815260a0890191825260c0890192835260e08901938452610100890195600087526101208a01953387526101408b019889526101608b019960008b526101a06101808d019c8d349052019c8d4290526000526000602052600160406000209e8f905181550190518051906001600160401b038211610b5657819061065b84546119bb565b601f811161120a575b50602090601f83116001146111a55760009261119a575b50508160011b916000199060031b1c19161790555b51805160028e01916001600160401b038211610b565781906106b284546119bb565b601f8111611147575b50602090601f83116001146110e2576000926110d7575b50508160011b916000199060031b1c19161790555b51805160038d01916001600160401b038211610b5657819061070984546119bb565b601f8111611084575b50602090601f831160011461101f57600092611014575b50508160011b916000199060031b1c19161790555b51805160048c01916001600160401b038211610b5657819061076084546119bb565b601f8111610fc1575b50602090601f8311600114610f5c57600092610f51575b50508160011b916000199060031b1c19161790555b61ffff60058b0191511661ffff198254161790556006890190518051906001600160401b038211610b565781906107cc84546119bb565b601f8111610efe575b50602090601f8311600114610e9957600092610e8e575b50508160011b916000199060031b1c19161790555b51805160078901916001600160401b038211610b5657819061082384546119bb565b601f8111610e3b575b50602090601f8311600114610dd657600092610dcb575b50508160011b916000199060031b1c19161790555b6008870191516003811015610db5576108719083611b05565b518154610100600160a81b03191660089190911b610100600160a81b0316179055518051805160098701916001600160401b038211610b565781906108b684546119bb565b601f8111610d62575b50602090601f8311600114610cfd57600092610cf2575b50508160011b916000199060031b1c19161790555b600a850160208201518051906001600160401b038211610b5657819061091184546119bb565b601f8111610c9f575b50602090601f8311600114610c3a57600092610c2f575b50508160011b916000199060031b1c19161790555b600b850160408201518051906001600160401b038211610b5657819061096c84546119bb565b601f8111610bdc575b50602090601f8311600114610b7757600092610b6c575b50508160011b916000199060031b1c19161790555b606001518051600c8601916001600160401b038211610b56576109c483546119bb565b601f8111610b0e575b50602090601f8311600114610a99579282610a4a9a989693600f969360209b9996600092610a8e575b50508160011b916000199060031b1c19161790555b51600d850180546001600160a01b0319166001600160a01b039290921691909117905551600e8401555191015560405190519093849282908490611a99565b81016001815203019020600160ff19825416179055604051903482527fab87f20b706cc7fddedbd4b46f46c9033f880359fcee906bfbe7a2dff48d2b6060203393a3005b015190508d806109f6565b90601f1983169184600052816000209260005b818110610af6575093600f969360209b99969360019383610a4a9f9d9b9810610add575b505050811b019055610a0b565b015160001960f88460031b161c191690558d8080610ad0565b92936020600181928786015181550195019301610aac565b836000526020600020601f840160051c81019160208510610b4c575b601f0160051c01905b818110610b4057506109cd565b60008155600101610b33565b9091508190610b2a565b634e487b7160e01b600052604160045260246000fd5b015190508b8061098c565b60008581528281209350601f198516905b818110610bc45750908460019594939210610bab575b505050811b0190556109a1565b015160001960f88460031b161c191690558b8080610b9e565b92936020600181928786015181550195019301610b88565b909150836000526020600020601f840160051c81019160208510610c25575b90601f859493920160051c01905b818110610c165750610975565b60008155849350600101610c09565b9091508190610bfb565b015190508b80610931565b60008581528281209350601f198516905b818110610c875750908460019594939210610c6e575b505050811b019055610946565b015160001960f88460031b161c191690558b8080610c61565b92936020600181928786015181550195019301610c4b565b909150836000526020600020601f840160051c81019160208510610ce8575b90601f859493920160051c01905b818110610cd9575061091a565b60008155849350600101610ccc565b9091508190610cbe565b015190508b806108d6565b60008581528281209350601f198516905b818110610d4a5750908460019594939210610d31575b505050811b0190556108eb565b015160001960f88460031b161c191690558b8080610d24565b92936020600181928786015181550195019301610d0e565b909150836000526020600020601f840160051c81019160208510610dab575b90601f859493920160051c01905b818110610d9c57506108bf565b60008155849350600101610d8f565b9091508190610d81565b634e487b7160e01b600052602160045260246000fd5b015190508d80610843565b60008581528281209350601f198516905b818110610e235750908460019594939210610e0a575b505050811b019055610858565b015160001960f88460031b161c191690558d8080610dfd565b92936020600181928786015181550195019301610de7565b909150836000526020600020601f840160051c81019160208510610e84575b90601f859493920160051c01905b818110610e75575061082c565b60008155849350600101610e68565b9091508190610e5a565b015190508e806107ec565b60008581528281209350601f198516905b818110610ee65750908460019594939210610ecd575b505050811b019055610801565b015160001960f88460031b161c191690558e8080610ec0565b92936020600181928786015181550195019301610eaa565b909150836000526020600020601f840160051c81019160208510610f47575b90601f859493920160051c01905b818110610f3857506107d5565b60008155849350600101610f2b565b9091508190610f1d565b015190503880610780565b60008581528281209350601f198516905b818110610fa95750908460019594939210610f90575b505050811b019055610795565b015160001960f88460031b161c19169055388080610f83565b92936020600181928786015181550195019301610f6d565b909150836000526020600020601f840160051c8101916020851061100a575b90601f859493920160051c01905b818110610ffb5750610769565b60008155849350600101610fee565b9091508190610fe0565b015190503880610729565b60008581528281209350601f198516905b81811061106c5750908460019594939210611053575b505050811b01905561073e565b015160001960f88460031b161c19169055388080611046565b92936020600181928786015181550195019301611030565b909150836000526020600020601f840160051c810191602085106110cd575b90601f859493920160051c01905b8181106110be5750610712565b600081558493506001016110b1565b90915081906110a3565b0151905038806106d2565b60008581528281209350601f198516905b81811061112f5750908460019594939210611116575b505050811b0190556106e7565b015160001960f88460031b161c19169055388080611109565b929360206001819287860151815501950193016110f3565b909150836000526020600020601f840160051c81019160208510611190575b90601f859493920160051c01905b81811061118157506106bb565b60008155849350600101611174565b9091508190611166565b01519050388061067b565b60008581528281209350601f198516905b8181106111f257509084600195949392106111d9575b505050811b019055610690565b015160001960f88460031b161c191690553880806111cc565b929360206001819287860151815501950193016111b6565b909150836000526020600020601f840160051c81019160208510611253575b90601f859493920160051c01905b8181106112445750610664565b60008155849350600101611237565b9091508190611229565b634e487b7160e01b600052601160045260246000fd5b60405162461bcd60e51b815260206004820152601960248201527f46656520746f6f206c6f7720283e3d20302e30312045544829000000000000006044820152606490fd5b60405162461bcd60e51b815260206004820152601a60248201527f4c6963656e736520706c61746520616c726561647920757365640000000000006044820152606490fd5b60405162461bcd60e51b8152602060048201526016602482015275111bd8dd5b595b9d0812541194c81c995c5d5a5c995960521b6044820152606490fd5b60405162461bcd60e51b815260206004820152601860248201527f496e76616c6964206d616e7566616374757265207965617200000000000000006044820152606490fd5b506107e984111561053d565b60405162461bcd60e51b8152602060048201526016602482015275131a58d95b9cd9481c1b185d19481c995c5d5a5c995960521b6044820152606490fd5b60405162461bcd60e51b815260206004820152600e60248201526d10dbdb1bdc881c995c5d5a5c995960921b6044820152606490fd5b60405162461bcd60e51b815260206004820152600e60248201526d135bd9195b081c995c5d5a5c995960921b6044820152606490fd5b60405162461bcd60e51b815260206004820152600e60248201526d109c985b99081c995c5d5a5c995960921b6044820152606490fd5b60405162461bcd60e51b815260206004820152601460248201527324b73b30b634b210383437b73290373ab6b132b960611b6044820152606490fd5b60405162461bcd60e51b815260206004820152601060248201526f1059191c995cdcc81c995c5d5a5c995960821b6044820152606490fd5b60405162461bcd60e51b815260206004820152600d60248201526c10d0d0d1081c995c5d5a5c9959609a1b6044820152606490fd5b60405162461bcd60e51b8152602060048201526012602482015271119d5b1b081b985b59481c995c5d5a5c995960721b6044820152606490fd5b3461009d57604036600319011261009d57602435600435600382101561009d576003546001600160a01b031633036117fb57801515806117f0575b156117b6576001821460008180156117a9575b1561177357826000526000602052604060002091600883019160ff8354166003811015610db55761172e576115d28684611b05565b600d840180546001600160a01b03191633179055610db557156116605750600080808093600e60018060a01b036003541691015490828215611657575bf11561164b575b6116236040518093611ae1565b7ff293bd2612d4b17249812ec1b22c737269c823c19abab1d9d9ddb37d7d754fcd60203393a3005b6040513d6000823e3d90fd5b506108fc61160f565b54600e8201546000918291829182919060081c6001600160a01b0316828215611725575bf11561164b57600401604051908160008254926116a0846119bb565b936001811690811561170b57506001146116cf575b506001815203602001909120805460ff1916905550611616565b9150506000528160206000206000905b8382106116f35750506020918101866116b5565b602091925080600191548487015201910183916116df565b60ff191684525060209380151502830191508790506116b5565b506108fc611684565b60405162461bcd60e51b815260206004820152601860248201527f56656869636c6520616c726561647920726576696577656400000000000000006044820152606490fd5b60405162461bcd60e51b815260206004820152600e60248201526d496e76616c69642073746174757360901b6044820152606490fd5b505060006002841461159d565b60405162461bcd60e51b8152602060048201526012602482015271125b9d985b1a590815995a1a58db1948125160721b6044820152606490fd5b50600254811061158a565b60405162461bcd60e51b815260206004820152602260248201527f4f6e6c792061646d696e2063616e20706572666f726d2074686973206163746960448201526137b760f11b6064820152608490fd5b3461009d57600036600319011261009d5760025460001981019080821161125d5761188e61187883611aee565b926118866040519485611944565b808452611aee565b602083019190601f190136833760015b8181106118ea5782846040519182916020830190602084525180915260408301919060005b8181106118d1575050500390f35b82518452859450602093840193909201916001016118c3565b60001981019080821161125d5784518210156119135780602060019360051b870101520161189e565b634e487b7160e01b600052603260045260246000fd5b608081019081106001600160401b03821117610b5657604052565b90601f801991011681019081106001600160401b03821117610b5657604052565b81601f8201121561009d578035906001600160401b038211610b565760405192611999601f8401601f191660200185611944565b8284526020838301011161009d57816000926020809301838601378301015290565b90600182811c921680156119eb575b60208310146119d557565b634e487b7160e01b600052602260045260246000fd5b91607f16916119ca565b9060405191826000825492611a09846119bb565b8084529360018116908115611a775750600114611a30575b50611a2e92500383611944565b565b90506000929192526020600020906000915b818310611a5b575050906020611a2e9282010138611a21565b6020919350806001915483858901015201910190918492611a42565b905060209250611a2e94915060ff191682840152151560051b82010138611a21565b60005b838110611aac5750506000910152565b8181015183820152602001611a9c565b90602091611ad581518092818552858086019101611a99565b601f01601f1916010190565b906003821015610db55752565b6001600160401b038111610b565760051b60200190565b906003811015610db55760ff8019835416911617905556fea2646970667358221220b154618f409e70c5906bce35c6e73bf1fc344efb82e6c9c95bab404474857c4f64736f6c634300081c0033",
  "linkReferences": {},
  "deployedLinkReferences": {}
}